:020000040800F2
:100000004024002495150008336800088115000875
:100010008115000881150008811500080000000006
:10002000000000000000000000000000551600085D
:100030008115000800000000F515000811470008B0
:10004000D1170008D1170008D1170008D1170008F0
:10005000D1170008D1170008D1170008D1170008E0
:10006000D1170008D1170008D1170008D1170008D0
:10007000D1170008D1170008D1170008D1170008C0
:1002D00080F0004002E000BF81F0004142001FBFFB
:1002E0005FEA410392EA030F7FEA226C7FEA236C04
:1002F0006AD04FEA1262D2EB1363C1BFD2184140F9
:1003000048404140B8BF5B42192B88BF704710F08E
:10031000004F40F4000020F07F4018BF404211F031
:10032000004F41F4000121F07F4118BF494292EA99
:10033000030F3FD0A2F1010241FA03FC10EB0C00C5
:10034000C3F1200301FA03F100F0004302D5494252
:1003500060EB4000B0F5000F13D3B0F1807F06D3FF
:1003600040084FEA310102F10102FE2A51D2B1F1F7
:10037000004F40EBC25008BF20F0010040EA0300EC
:100380007047490040EB0000013A28BFB0F5000F6C
:10039000EDD2B0FA80FCACF1080CB2EB0C0200FA22
:1003A0000CF0AABF00EBC25052421843BCBFD04071
:1003B0001843704792F0000F81F4000106BF80F4EB
:1003C00000000132013BB5E74FEA41037FEA226CAE
:1003D00018BF7FEA236C21D092EA030F04D092F079
:1003E000000F08BF0846704790EA010F1CBF0020AD
:1003F000704712F07F4F04D1400028BF40F000400A
:10040000704712F100723CBF00F50000704700F029
:10041000004343F0FE4040F4000070477FEA226250
:1004200016BF08467FEA23630146420206BF5FEA21
:10043000412390EA010F40F4800070474FF0000321
:1004400004E000BF10F0004348BF40425FEA000CE8
:1004500008BF704743F0964301464FF000001CE090
:1004600050EA010208BF70474FF000030AE000BFE6
:1004700050EA010208BF704711F0004302D5404224
:1004800061EB41015FEA010C02BF84460146002096
:1004900043F0B64308BFA3F18053A3F50003BCFAB1
:1004A0008CF2083AA3EBC25310DB01FA02FC63445E
:1004B00000FA02FCC2F12002BCF1004F20FA02F265
:1004C00043EB020008BF20F00100704702F1200258
:1004D00001FA02FCC2F1200250EA4C0021FA02F2B9
:1004E00043EB020008BF20EADC7070474FF0FF0CBE
:1004F0001CEAD0521EBF1CEAD15392EA0C0F93EAB9
:100500000C0F6FD01A4480EA010C400218BF5FEA5A
:1005100041211ED04FF0006343EA501043EA5111CD
:10052000A0FB01310CF00040B1F5000F3EBF4900C7
:1005300041EAD3715B0040EA010062F17F02FD2ACB
:100540001DD8B3F1004F40EBC25008BF20F00100AE
:10055000704790F0000F0CF0004C08BF49024CEAC5
:10056000502040EA51207F3AC2BFD2F1FF0340EA57
:10057000C250704740F400004FF00003013A5DDCC8
:1005800012F1190FDCBF00F000407047C2F1000209
:10059000410021FA02F1C2F1200200FA02FC5FEAF6
:1005A000310040F1000053EA4C0308BF20EADC7040
:1005B000704792F0000F00F0004C02BF400010F4B2
:1005C000000F013AF9D040EA0C0093F0000F01F05F
:1005D000004C02BF490011F4000F013BF9D041EA81
:1005E0000C018FE70CEAD15392EA0C0F18BF93EA83
:1005F0000C0F0AD030F0004C18BF31F0004CD8D1AD
:1006000080EA010000F00040704790F0000F17BF33
:1006100090F0004F084691F0000F91F0004F14D079
:1006200092EA0C0F01D142020FD193EA0C0F03D1D1
:100630004B0218BF084608D180EA010000F00040D4
:1006400040F0FE4040F40000704740F0FE4040F4AF
:10065000400070474FF0FF0C1CEAD0521EBF1CEA4E
:10066000D15392EA0C0F93EA0C0F69D0A2EB03026C
:1006700080EA010C49024FEA402037D04FF0805306
:1006800043EA111143EA10130CF000408B4238BFCB
:100690005B0042F17D024FF4000C8B4224BF5B1AD9
:1006A00040EA0C00B3EB510F24BFA3EB510340EA27
:1006B0005C00B3EB910F24BFA3EB910340EA9C00D5
:1006C000B3EBD10F24BFA3EBD10340EADC001B0145
:1006D00018BF5FEA1C1CE0D1FD2A3FF650AF8B42E9
:1006E00040EBC25008BF20F0010070470CF0004CF6
:1006F0004CEA50207F32C2BFD2F1FF0340EAC25021
:10070000704740F400004FF00003013A37E792F0E1
:10071000000F00F0004C02BF400010F4000F013A3F
:10072000F9D040EA0C0093F0000F01F0004C02BF3A
:10073000490011F4000F013BF9D041EA0C0195E7A3
:100740000CEAD15392EA0C0F08D142027FF47DAF3C
:1007500093EA0C0F7FF470AF084676E793EA0C0F2C
:1007600004D14B023FF44CAF08466EE730F0004C2A
:1007700018BF31F0004CCAD130F000427FF45CAFBA
:1007800031F000437FF43CAF5FE700BF4FF0FF3C28
:1007900006E000BF4FF0010C02E000BF4FF0010C7B
:1007A0004DF804CD4FEA40024FEA41037FEA226C44
:1007B00018BF7FEA236C11D001B052EA530C18BF66
:1007C00090EA010F58BFB2EB030088BFC81738BFCB
:1007D0006FEAE17018BF40F0010070477FEA226CB9
:1007E00002D15FEA402C05D17FEA236CE4D15FEAB5
:1007F000412CE1D05DF8040B704700BF84460846E9
:100800006146FFE70FB5FFF7C9FF002848BF10F1A9
:10081000000F0FBD4DF808EDFFF7F4FF0CBF0120EE
:1008200000205DF808FB00BF4DF808EDFFF7EAFF78
:1008300034BF012000205DF808FB00BF4DF808ED33
:10084000FFF7E0FF94BF012000205DF808FB00BF28
:100850004DF808EDFFF7D2FF94BF012000205DF8AE
:1008600008FB00BF4DF808EDFFF7C8FF34BF0120BB
:1008700000205DF808FB00BF4FEA4002B2F1FE4FD6
:100880000FD34FF09E03B3EB12620DD94FEA002352
:1008900043F0004310F0004F23FA02F018BF40422B
:1008A00070474FF00000704712F1610F01D1420212
:1008B00005D110F0004008BF6FF0004070474FF0C6
:1008C000000070477BB972B90029BEBF00204FF00D
:1008D000004106E008BF00281CBF6FF000414FF048
:1008E000FF3000F057B8ADF1080C6DE904CE0029D7
:1008F00009DB002B1ADB00F04FF8DDF804E0DDE93E
:10090000022304B07047404261EB4101002B1BDB26
:1009100000F042F8DDF804E0DDE9022304B04042D3
:1009200061EB4101524263EB43037047524263EB78
:10093000430300F031F8DDF804E0DDE9022304B000
:10094000404261EB41017047524263EB430300F0C8
:1009500023F8DDF804E0DDE9022304B0524263EB42
:100960004303704753B94AB9002908BF00281CBF88
:100970004FF0FF314FF0FF3000F00CB8ADF1080C34
:100980006DE904CE00F008F8DDF804E0DDE90223AB
:1009900004B07047704700BF2DE9F04786468C468B
:1009A0000846089E154674461946002B40F0C28042
:1009B0008542B2FA82F245D94AB1C2F1200300FA67
:1009C00002FC2EFA03F3954043EA0C0C94404FEAE4
:1009D000154EA8B2BCFBFEF8230C0EFB18CC08FB8E
:1009E00000F943EA0C43994528D9EB1808F1FF3781
:1009F00004D2994502D9A8F102072B44A3EB0903BD
:100A0000A4B2B3FBFEFC0EFB1C330CFB00F044EA6B
:100A10000344A04214D92C190CF1FF3304D2A04294
:100A200002D9ACF102032C44241A43EA07401EB158
:100A3000D440002334607360BDE8F0874746DDE7AB
:100A40006346F1E792BB431B01214FEA154EAFB25B
:100A5000B3FBFEFC200C0EFB1C330CFB07F840EA3A
:100A60000343984562D9EB180CF1FF3004D2984546
:100A700002D9ACF102002B44A3EB0803A4B2B3FBF0
:100A8000FEFC0EFB1C330CFB07F744EA0344A742B1
:100A90004ED92C190CF1FF3304D2A74202D9ACF184
:100AA00002032C44E41B43EA0040C0E7C2F12003E8
:100AB00020FA03F1954090402EFA03F303434FEAE6
:100AC000154EAFB2B1FBFEFC0EFB1C10190C0CFB5B
:100AD00007F841EA0041884504FA02F422D969186E
:100AE0000CF1FF3004D2884502D9ACF10200294450
:100AF000A1EB08019BB2B1FBFEFC0EFB1C110CFB31
:100B000007F743EA01439F420ED9EB180CF1FF317E
:100B100004D29F4202D9ACF102012B44DB1B41EA13
:100B2000004192E76046E3E76146F7E76046A3E7E6
:100B30006346B7E7834206D916B9002108467BE72A
:100B4000C6E900E0F9E7B3FA83F78FB9834201D32E
:100B5000724508D8BEEB020460EB030301209C46FB
:100B60001EB9002168E73846FAE7C6E9004CF8E705
:100B7000C7F1200CBB4022FA0CF41C432EFA0CF1F6
:100B800020FA0CF3B84001434FEA14490EFA07F576
:100B9000B3FBF9F81FFA84FE09FB18300B0C08FBB5
:100BA0000EFA43EA00439A4502FA07F240D9E318E5
:100BB00008F1FF3004D29A4502D9A8F1020023447B
:100BC000A3EB0A0389B2B3FBF9F809FB183308FB5E
:100BD0000EFE41EA03418E452CD9611808F1FF331E
:100BE00004D28E4502D9A8F10203214443EA004011
:100BF000A0FB0298A1EB0E014145CE46434602D32D
:100C000006D14D4504D2B9EB020E68EB040301385E
:100C1000002EA6D0B5EB0E0261EB030101FA0CFC2D
:100C200022FA07F34CEA0303F940C6E9003198E7DA
:100C30004046C5E74346D9E7032937B5044615467C
:100C40003DD83AB3072A3AD15A681D68D1171346DE
:100C50001F48C5FB0031012B71F1000212DB00F5CA
:100C60006E1000F65D70181817A3D3E9002341F148
:100C70000001FFF727FE0146204603B0BDE83040E3
:100C800002F02ABD134818180FA3D3E9002361F11D
:100C90000001EEE759684FF47A72188891FBF2F17F
:100CA00089B202F0AFFD042807DDC0B20F232A4647
:100CB00040210090204607F024F803B030BD6FF0CB
:100CC0008500FAE7AFF300803AA39500000000002A
:100CD00040420F00632EB5FF0439032938B504469E
:100CE00002D96FF0850038BD3AB3072AF9D15A68A6
:100CF000B4251968D0171E4BC1FB0320A2FB053198
:100D0000012A05FB001170F100000EDB19481818CC
:100D100015A3D3E9002341F10001FFF7D3FD81B210
:100D20002046BDE8384002F04BBD134818180EA30A
:100D3000D3E9002361F10001EFE759684FF47A72BB
:100D4000188891FBF2F189B202F05CFD0028CADB41
:100D50000728C6DCC2B210212046BDE8384007F0A3
:100D60001EB900BFAFF30080D8EF2F0000000000D5
:100D700040420F00ECF717001408E8FF00B589B0F7
:100D8000002200230A490B48CDE90623002305224F
:100D9000CDE90133CDE9032300934FF48062064B84
:100DA00004F0F4FA054909B05DF804EB07F0B9BCAA
:100DB0004012002460060024550E000836A00008EA
:100DC00008B50848084B186005F09FFA074B984291
:100DD00094BF00EB40004FF0FF3005F0DCFA044B0D
:100DE000186008BD348F000834090024A8AAAA2A74
:100DF000300900242DE9F8430C46064691469846F2
:100E000005F083FA844205461ED2114B04EB4404DC
:100E10009DF820201F683B1907F8049083F8018093
:100E20009A70B468A36843B923682A4639463046A5
:100E3000984700EAE070BDE8F8833046984785425D
:100E4000F2D96FF02100F4E76FF01500F3E700BF6F
:100E50003009002410B5104C03220021206805F051
:100E600057FA002141F2883007F0C8FC0722002120
:100E7000206805F04DFA002141F2883007F0BEFCF1
:100E800008220021206805F043FA002141F2883051
:100E900007F0B4FCE0E700BF34090024014B1B68F5
:100EA000184700BFC004002430B585B004460D4685
:100EB00010220021684607F058FD02232A462146E9
:100EC0008DF802306846034B019304F0C1FF05B072
:100ED00030BD00BF9D0E000880B505460E46174682
:100EE000984604F013FDDFF82090034607F0A8FDB4
:100EF0000446424649F8003039463046A84754F87F
:100F0000090000F061FB00BF080000000C4B82B03C
:100F10000020D3F8D82042F00102C3F8D820D3F83B
:100F2000D83003F001030193019B064B5A6842F04D
:100F300002025A605A6842F001025A6002B07047D9
:100F4000004402580010005C38B545680F4C20463C
:100F500007F070FB98B1A3681B689BB12946204637
:100F6000984700280ADB00F015F8094B9A6842F010
:100F700001029A609A68D207FCD5002038BD6FF054
:100F80001200FBE76FF05700F8E700BF948B0008F2
:100F900000480258EFF31180102383F31288BFF347
:100FA0006F8F094B1A683AB9084A116841F4807189
:100FB00011601168C905FCD51A6801321A6080F306
:100FC0001188BFF36F8F704738090024004802581A
:100FD00008B500F06DFC00F00DFC0C4B0C4A1A60DB
:100FE0000C4AD36823F0070343F00203D3600A4B93
:100FF0001A6841F20303B3EB124F06D1074AD2F845
:10100000083143F00103C2F8083108BDE8050024A7
:101010000090D003004802580010005C008000518E
:10102000014B0360012070478096000806480021AC
:10103000064A08B5121A05F0F4FB0548054A0021D6
:10104000121A05F0EEFB08BD600600242C120024E5
:1010500000000020000000200C480D4A0D49121A23
:1010600008B505F0E0FB0C480C4A0D49121A05F0D2
:10107000DAFB0C4A0C490D4805F0D5FB0C480D4A2B
:101080000D49121ABDE8084005F0CDBBC00400248C
:101090005C06002408BF0008B8040024C004002433
:1010A00000BF000800000000A4C00008000000000D
:1010B0000000002000000020A4C0000838B505464C
:1010C0000C4699B11048D1E90123096805F09BFB52
:1010D000E1680E48D4E9042305F095FBE1690C486A
:1010E00005F091FBA1690B4805F08DFB012D05D1A1
:1010F000EFF305810848103905F085FB21462846A5
:10110000BDE8384003F054BD76A00008A6A0000852
:10111000D6A00008E6A0000815A1000830BFFFF720
:10112000FDBF00BF2DE9F0410B4E0546DFF82C80D6
:10113000324606EB0807CC1B0949204607F007FC9E
:10114000A019083C4246002107F00FFC07F10800F7
:101150002C67BDE8F08100BF00000000080000001F
:101160002C960008054B5A699B689A4204D0044AA1
:10117000536843F080535360704700BFD011002480
:1011800000ED00E02DE9F843324D804632488946B3
:10119000174605F038FBAB6ADE0622D511242F482E
:1011A00005F031FBAB6A1D0703D512242C4805F06E
:1011B0002AFB284DAB6A980715D52A4805F023FB72
:1011C0006E6BAB6A190642D53146274805F01BFB0A
:1011D000B9F1000F03D0AB6A23F08003AB62132494
:1011E00003E01024DEE76FF015061A4DAB6ADA074C
:1011F00003D514241D4805F006FBAB6A9B0603D5F6
:1012000015241B4805F0FFFA124B9A6AD50602D442
:101210009A6A90070AD55B68190507D5414630469A
:1012200000F090FA10B180F309880224094B9A6A01
:10123000920603D55A6A22F400525A629A6A2046EC
:1012400042F0FF029A6200233B70BDE8F8836FF022
:101250001506C4E700ED00E029A1000840A1000840
:1012600074A1000888A10008A1A10008B8A1000885
:10127000D8A1000810B51D4C1D4805F0C4FAA36A9A
:10128000990130D51B4805F0BEFA1E20A36ADA0189
:1012900003D5194805F0B7FA1F20144CA36A1B03A5
:1012A00003D5164805F0AFFA2120A36A590303D5E8
:1012B000134805F0A8FA22200C4CA36A9A0303D520
:1012C000104805F0A0FA2320A36ADB0303D50E48DB
:1012D00005F099FA2420054A936A6FEA03436FEAFE
:1012E0001343936210BD1D20D0E700BF00ED00E066
:1012F00008A2000821A2000835A2000850A2000898
:101300006FA2000895A20008B0A2000870B5244C96
:10131000064624480D4605F076FAA36AD90435D569
:10132000214805F070FA1720A36A1A0503D51F4853
:1013300005F069FA18201A4CA36A9B050FD51C48C2
:1013400005F061FAA16BA36A180407D5194805F0E6
:101350005AFA1EB1A36A23F40043A3621920104C69
:10136000A36A590503D5144805F04DFA1A20A36A5B
:10137000DA050DD5114805F046FA1B20084A936A94
:1013800043F47F43936200232B7070BD1620CBE79C
:10139000A36A9B04F2D50A4805F035FA1C20EDE754
:1013A00000ED00E0DCA20008F3A2000874A1000830
:1013B00005A300081FA3000835A3000851A30008D7
:1013C000D8A100085D4B2DE9F0415F688AB0044662
:1013D0000025C7F3080685F31188BFF36F8F02F06D
:1013E0007F43B3F17F4F06D102F00C03082B13D1DA
:1013F000534805F008FA00252C464FF00008F31E6C
:101400008DF80780092B00F28780DFE803F00A7B64
:101410007F7785858585858310074CBF0C46012520
:10142000EBE7464E474805F0EEF98DF80780F36A82
:101430009A0704D5444805F0E6F9002330E0F36A42
:10144000002B01DA4148F6E7F36A5B00F5D5404826
:1014500005F0D9F97369A26943F480737361BFF32E
:101460004F8FBFF36F8F736932F8022C23F48073B0
:101470007361BFF34F8FBFF36F8F4DF602739A42C4
:1014800009D0B36ADBB25BB30DF10702012120463C
:10149000FFF778FE34E021682E4805F0B4F92368A0
:1014A0009DF80720CAB902AE04F12007206808346D
:1014B00054F8041C3246BC4203C21646F6D1099ABF
:1014C000B5B3C2F3080121B96FEA52226FEA422292
:1014D000099202A91846FFF7F1FD0AB0BDE8F081B4
:1014E000B36A13F47F4F05D00DF107010120FFF718
:1014F0000DFF05E0B36AB3F5803F9ED3FFF7BAFE58
:101500000346CDE70DF107020021C0E70DF1070109
:101510000020ECE710488EE717F4F87F0F4B1049D6
:10152000A6F1100218BF19460E4805F06CF984E7C1
:1015300022F4FF7222F00102CAE700BF00ED00E0D2
:1015400098A30008C4A30008DCA30008FEA30008B9
:101550000DA400082DA400084AA400087FA30008D9
:101560006AA300086FA40008044B5A6942F01002F5
:101570005A615A6922F008025A61704700ED00E092
:10158000EFF30880EFF3098101B57246FFF71AFF08
:1015900001BD00BF0A4880F30888102080F311883D
:1015A00008484FF40461401880F30988EFF3148071
:1015B0000221084380F31488BFF36F8F00F08EF888
:1015C0004024002480160024084B9B6883420BD1E2
:1015D000EFF3058343B1064B5A6842F080525A60DC
:1015E0005A6A22F400425A6204F096B9D0110024DB
:1015F00000ED00E014498A684FF030001044EFF32A
:10160000098C80E8F01F102080F31288BFF36F8FE1
:101610000E4F4FF000664A698A603E60106F0C4CB6
:101620002060506F0023536780F3118804B5104683
:1016300000F064F9BDE8044002F1300090E8F01FCA
:101640008CF3098870470000D011002404ED00E0FD
:101650003C0900241EF0040F0CBFEFF30880EFF3E9
:101660000980816911F8021C0229FFD001B5724678
:1016700005F0DBF801BD00BF00B2002807DB012345
:10168000410900F01F00024A834042F821307047B0
:1016900000E100E000B2013100284FEA0111C9B2B7
:1016A00006DB00F1604000F5614080F800137047F0
:1016B00000F00F00014B1954704700BF14ED00E01B
:1016C000044B054A23F07F039360BFF34F8FBFF3B2
:1016D0006F8F70470000000800ED00E008B5FFF7CD
:1016E000EFFF0C4AD2F8883023F47003C2F8883038
:1016F000EFF3148323F0040383F31488BFF36F8F95
:10170000FFF794FCFFF7A8FC00F056F805F0B3F8DB
:1017100003F024FB00ED00E042F8203C203A009B5F
:1017200007495360019B21F001019360029B916185
:10173000D3604FF08073D361002302654367704725
:10174000D90E0008094A0346906870B113F1160FCC
:10175000006E05D0A0F140029A4205D8834203D220
:10176000814228BF0020704700207047D01100241C
:1017700015460C4A0E4608B50B4B9060026F1A6076
:1017800000F0BCF82C4686F309880020034B9847EC
:101790002046002100220023014C20474F6800080A
:1017A000D90E0008D01100243C090024014B10225E
:1017B0001A61704700ED00E0002304481021C218B0
:1017C0000133A32B82F80013F9D1704700E100E048
:1017D00008B5EFF30583064A103B02EBC30152F84C
:1017E000330049688847BDE80840FFF7BBBC00BF2D
:1017F000B48F0008154A70B5536913F4803323D1B0
:10180000C2F88430BFF34F8FD2F8803043F6E074D3
:10181000C3F3C900C3F34E335B0103EA0406014678
:1018200046EA81750139C2F86052F9D2203B13F1C2
:10183000200FF2D1BFF34F8F536943F480335361CC
:10184000BFF34F8FBFF36F8F70BD00BF00ED00E09F
:10185000002910DD00F01F030B44BFF34F8F074931
:101860000344C1F8680220301A1A002AF9DCBFF3D9
:101870004F8FBFF36F8F0020704700BF00ED00E077
:10188000002910DD00F01F030B44BFF34F8F074901
:101890000344C1F85C0220301A1A002AF9DCBFF3B5
:1018A0004F8FBFF36F8F0020704700BF00ED00E047
:1018B0000B4B5A6912F4003211D1BFF34F8FBFF3B3
:1018C0006F8FC3F85022BFF34F8FBFF36F8F5A69EA
:1018D00042F400325A61BFF34F8FBFF36F8F7047EE
:1018E00000ED00E0024B0121024A034800F076B807
:1018F000000005240000002490960008026E40219C
:10190000044B403A18461A60034AC3E90112012108
:1019100000F06EB84009002400000B15084AC2F818
:1019200098000B6823F01F03034343F01003C2F831
:101930009C308B6843F00103C2F8A030704700BFB1
:1019400000ED00E02DE9F0430E4685B01F46044649
:101950004FF00009DFF85480B14523DA6068D8B150
:101960003FB1411E08421BD11F2819D923681942D3
:1019700016D12368019304F07FFFA3680343D0B21C
:101980000393D8F89050C5F30725013DA84207D826
:1019900001A9FFF7C3FF421C09F101090C34DBE781
:1019A0006FF01502104605B0BDE8F08300ED00E0D1
:1019B000044B0522C3F89420BFF34F8FBFF36F8F02
:1019C000704700BF00ED00E0BFF35F8F024B0022C5
:1019D000C3F89420704700BF00ED00E010B5034C41
:1019E00001232278FFF7AEFF207010BD0C120024F7
:1019F0000B4A08B500231278FFF7A4FF10F1160F69
:101A000007D0084A0021D2F89030C3F30723984248
:101A100000DB08BDC2F898000130C2F8A010F2E760
:101A20000C12002400ED00E0544B2DE9F043544C1F
:101A300085B0D3F890302568C3F307239D4200F2A8
:101A40009A8000200C26FFF7BFFF85421AD14D4C2B
:101A500068464D4F2570FFF7E3FA00250646DFF88C
:101A60001C81DFF82891AE4213D12378002043492E
:101A7000D1F89020C2F30722934276DB0020FFF7D3
:101A800097FF42E0616806FB0011FFF747FF013056
:101A9000DBE700984FEA051C00EB0511CB683B40E3
:101AA000B3F5000F48D00AD8B3F5001F30D0B3F516
:101AB000800F36D0B3F5801F10D00135D3E7B3F1D6
:101AC000807F42D0B3F1007FF7D150F80C308868A6
:101AD00004F0D2FE4A6840F4802009E050F80C304F
:101AE000886804F0C9FE40F088504A6840F430200D
:101AF00003902078CDE90123D8F89030C3F3072371
:101B0000013B98422AD96FF0150005B0BDE8F0837B
:101B100050F80C30886804F0AFFE4A6840EA0900CB
:101B2000E6E750F80C30886804F0A6FE40F0C0608C
:101B30004A6840F40030DBE750F80C30886804F065
:101B40009BFE4A6840F08270D2E750F80C308868FB
:101B500004F092FE4A6840F08870C9E701A9FFF7D7
:101B6000DDFE237801332370A7E7C1F898300133F5
:101B7000C1F8A0007CE74FF0FF30C6E700ED00E0C1
:101B8000549600080C1200240000F0FF0000081119
:101B90000649074821F00701C1F1105208B502F5C6
:101BA000A02204F0D6FD002008BD00BFC7280024F5
:101BB0004C0900244FF0FF324FF0FF33014803F08F
:101BC0002FB900BFC4040024014803F0A1B900BF2D
:101BD000C404002438B50546FFF7ECFF0821084887
:101BE0002A4604F037FD044628B925B1054B0C22DE
:101BF00006F026FF1A50FFF7E7FF204638BD00BF6A
:101C00004C0900240C000000044B03EB40000023AF
:101C1000013320F8022B9942FADC7047F8050024C2
:101C20002DE9F041054600260F4F4FF00108F4B2B0
:101C30006B78A34201D8BDE8F0812B781C44204684
:101C400004F0C8FE68B1204604F0E0FE57F83430D6
:101C50003BB107EBC40204F01F04516808FA04F01A
:101C600098470136E3E700BF58090024034680B1D6
:101C7000B0FA80F2C2F11F02D2B2074931F9120064
:101C80004FF0B042D2F880100B43C2F88030FFF71B
:101C9000F3BCFF22F1E700BFF805002430B5B0B176
:101CA000B0FA80F3C3F11F03DBB20B4850F83340A6
:101CB0008C4204D100EBC3056D68954205D044B950
:101CC00040F8331000EBC3004260002030BDFF231A
:101CD000EBE76FF00F00F9E75809002460B1B0FAA4
:101CE00080F3C3F11F03DBB2044A002142F8331032
:101CF00002EBC30251607047FF23F5E75809002447
:101D000000F003020F23043292009340094A43EA91
:101D1000900000F00303023352F82320030C93FADF
:101D2000A3F3B3FA83F302EA104003F01F03D84091
:101D3000704700BF0004005813B50B4C204606F056
:101D400079FC58B10223F422CDE90023A3681B6873
:101D50003BB169462046984702B010BD6FF01200B3
:101D6000FAE76FF05700F7E7948B00082DE9F04F82
:101D70000F4689B091461E46D0F808A06A4BD0F8AD
:101D800008809A4200F2CD80B8F83C40B8F83E3066
:101D900001341C44B8F840301C44002A00F0C180D3
:101DA000B6F57A7F80F0BD80836807A99B6A984763
:101DB000002840F0B3804EB95C4B994535D85C4B58
:101DC00040F26B36994588BF4FF44876079B04FB79
:101DD00009F4B3FBF4F40293BAF838309C4238BFEC
:101DE0001C466FF0004304FB09FB0393B8F8423034
:101DF0009C421DDD0398FB88BA885B08934228BF8C
:101E000013463B80BAF83020934204D9B8F83A2000
:101E10009A4228BF1A466FF000433A80984208BFA2
:101E20006FF0850009B0BDE8F08F40F2EE26CDE7F7
:101E3000029BB3FBFBF30193DDE901230BFB1233A0
:101E40005BBB01994FF47A75BDF804207143B8F873
:101E50003C30B8F83EE005930EEB0300BAF834C00E
:101E6000BAF8323080B2B1FBF5F1511ABAF83650F7
:101E700089B20495A94213D9B8F840508D4228BFC1
:101E80000D46511E491B89B288420BD2151AB8F86B
:101E90004020013DADB2AA420FD20134CB44A5E7A8
:101EA000049DEEE70CEB030080B288422DD9121A94
:101EB000013A95B2049AAA42EFD8B3EB500F4FEA19
:101EC000500203D2059B934228BF1346C21A92B216
:101ED00096451CD2A0EB0E0372469BB24FF47A716A
:101EE00000FB01100199B0FBF1F08642039934BF69
:101EF000801B301A8142D0D97B80BA80FD803C8122
:101F000000283FF478AF0390C7E70846D5E794452B
:101F100082BFA0EB0C0362469BB2DFE76FF00400C8
:101F200080E76FF015007DE740420F0000350C00A0
:101F300020A107002DE9F04F8BB0054617469946C2
:101F400043681022884606A80021D3F818A006F09E
:101F50000CFD03AA3946284604F0BEFD002874D1C2
:101F6000DFF820B1039E73066FD0C6F30526082361
:101F700004AA284606EBC60108EBC10189B201910B
:101F800004F094FD002860D19DF816300199C3F348
:101F9000030003F00F028DF81C009DF8130010F0F1
:101FA000200F1EBF9DF81D4044F002048DF81D4017
:101FB0009C0642BF9DF81D4044F004048DF81D406E
:101FC000DB0642BF9DF81D3043F008038DF81D303D
:101FD00004069DF8174048BF9DF81D3004F07F04AB
:101FE00044BF43F010038DF81D3043061AD5049BFF
:101FF000C3F31C0306939DF81D3043F001038DF8D5
:102000001D301BF80230082B2CD89DF81D2090079E
:102010000ED59DF81D3022B2E400D90718D4DAF8A5
:10202000043017E0BDF81230C3F38A030693E8E7E3
:10203000002BEED00333083108AA284603F4FE73C0
:1020400089B204F033FD0028E3D00BB0BDE8F08F77
:10205000DAF808301C4453F83230626813B106A92C
:102060002846984732464946284604F039FD00285C
:10207000EBD103AA3946284604F02EFD00283FF490
:1020800071AFE2E7AFA400082DE9F3410669054608
:102090004FF0FF324FF0FF331036304604F018FD9A
:1020A00001AA1821284604F017FD044648BB019AEE
:1020B0001821284622F01002019204F011FD044676
:1020C000F8B902F0F1FB01AA07461821284604F0EE
:1020D00003FD0446A8B9DFF84C80019B1B0710D50F
:1020E00002F0E2FBC01B404512D9019A1821284694
:1020F00042F01002019204F0F3FC041E08BF6FF0DE
:102100000A04304604F0E6FC204602B0BDE8F08147
:1021100001AA1821284604F0DFFC0028DDD004467F
:10212000EFE700BFC03B470370B5046905460E46A4
:1021300023792BBB10344FF0FF324FF0FF33204692
:1021400004F0C6FCF38832882846013B3189013A05
:1021500003F07F03013943EA4263B288013A120275
:1021600002F47F421343084A02EA01421C211A4347
:1021700004F0B6FC0546204604F0ACFC284670BDD1
:102180006FF00F05FAE700BF0000FF012DE9F04FE7
:1021900089B050210446076904AA04F09DFC002878
:1021A00063D1554E049A32405FD05021204604F04E
:1021B00097FC002859D1049B13F0607F36D0D4F8E7
:1021C000108005AA63680DF10F012046D3F818901E
:1021D000D8E902AB04F0CCFD40BB9DF80F50BAF13A
:1021E000000F04D05B46059A29462046D047032DB0
:1021F0001CD14FF0FF32D421204604F071FC05467B
:10220000A0B9824608F1240899F80C309D422FD3DA
:1022100006AA1821204604F05FFC38B9069A182156
:10222000204622F00102069204F05AFC049BD804D6
:102230000DD56568D4F81090D5F8188005AAF4215A
:10224000204604F049FC10B9059A910627D1049B59
:102250001B0403D507F1240002F0AAFE04AA5021B2
:10226000204604F039FC00289CD009B0BDE8F08F6E
:10227000D9F80030EA0053F835B0BBF1000F0CD0AC
:1022800043F835A06FF07101D9F8003020461344AF
:102290005A68D847404602F08BFE0135B4E7C2F3D6
:1022A000042A298F082306AA01EBCA01204689B215
:1022B00004F0FCFB0028CAD15246F82120469DF8C4
:1022C0001FB004F00DFC82460028C0D1D8F80010E1
:1022D0000FFA8BF001EBCB0351F830B05A6841F89C
:1022E00030A0019209F1240002F062FE019A5146E9
:1022F0002046D847A2E700BF0090823B2DE9F04F6F
:102300000D460979DFF8A8C114460F290A4687B09F
:10231000D0F804A028BF0F220746DAF818801CF86E
:102320000290002295F805C00669CCF3400EBCF17E
:10233000030F0093CDE904224FEA8C1202F0400211
:1023400042EA4E128DF8132001F00F0262F07F0274
:102350008DF8162000F29C80B9F1080F00F29B80E6
:10236000082900F298803279002A00F0978003AAA9
:10237000442104F0B1FB8346002859D1039A10068A
:1023800000F18F8006F1240301932246009B06F1A1
:10239000240002F041FE8346002840F08580343658
:1023A0004FF0FF334FF0FF32304604F091FB98F8C6
:1023B0000C305B4540DC4FF0FF346B7938462A68BF
:1023C000D907BAF83A108DF817404BBF049BBDF8F7
:1023D000123062F31C0362F38C0304AA4CBF049313
:1023E000ADF8123004EBC403DB009BB21944009338
:1023F000082389B204F061FB834600283BD16B7946
:102400009B0723D5D8F80030D021109A384643F8DE
:102410003420E200D8F800301344119A5A600122A7
:10242000A24004F05DFB834660BB304604F052FBE3
:10243000584607B0BDE8F08FD8F800205C4652F847
:102440003B20002AB9D00BF1010BB2E7B9F1000F24
:10245000D8D0BAF83A2009F1030300993846083277
:1024600003F4FE73114405F1080289B204F025FB60
:1024700083460028C6D0304604F02CFB019802F0B9
:1024800097FDD5E7D8F80030002143F83410F2E783
:102490006FF0850BCCE76FF0150BC9E76FF0720B8F
:1024A000C6E76FF0710BC3E76FF00A0BC0E700BF20
:1024B000AFA400082DE9F347884619685B68914688
:1024C000254A0546C3F30A03066902EA0142D0F829
:1024D00004A043F000431036DAF8187000241343C8
:1024E00030464FF0FF3201934FF0FF3304F0F0FA23
:1024F0007B7BA34205DC304604F0ECFA6FF01B0056
:1025000026E07A6852F834200AB10134F1E704F089
:1025100001039DF807202846013363F3C502042315
:102520008DF807200DEB0302BAF82E1001EB8401A1
:1025300089B204F0C2FA58B9304604F0CBFA7B688D
:10254000204643F834807B6803EBC403C3F804904F
:1025500002B0BDE8F08700BF0000FF07F0B5002320
:1025600085B0456804460669AF69ADF80C30CDE921
:10257000013306F1100006F086F806F1340006F08B
:1025800082F83A7B114606F1240006F083F82868A9
:1025900030B92046FFF778FD50B16FF0040005E038
:1025A00006F048F80028F4D16FF0120005B0F0BD35
:1025B0004FF47A720023204604F096FA0028ECD1FA
:1025C000204604F0BBFC6A461821204604F084FA39
:1025D0000028EBD1009A1821204622F4697200925B
:1025E00004F07EFA0028E1D16A461021204604F06A
:1025F00073FA0028DAD1009A1021204622F0100246
:10260000009204F06DFA0028D0D16A46802120465D
:1026100004F062FA0028C9D1009A8021204642F0D5
:102620002B02009204F05CFA0028BFD1EA682B8AE2
:1026300001A92046FFF79AFB1630AED001A920462B
:1026400004F0FEF90028AFD1134A5421204600922D
:1026500004F046FA0028A9D1992258212046009278
:1026600004F03EFA0028A1D103225C21204600920A
:1026700004F036FA002899D14FF0FF32E0212046CD
:10268000009204F02DFA002890D10146EA6B204612
:1026900004F01AFA8AE700BF9990820303460748BC
:1026A0000A46816810B4CC681CB11946234610BC98
:1026B00018476FF0570010BC704700BF948B00089C
:1026C0002DE9F7434368054601AA00211E6C3069D5
:1026D00005F03BFA041E14DB019B002219791868EF
:1026E00000F04EFF044660B96B681F6C4FF0FF337B
:1026F0000193DFF8A490484605F09CFF28B96FF0DD
:102700001204204603B0BDE8F0837B69B969012B50
:10271000D9F8088006D8D8F80030B969CBB96FF07D
:102720005704EEE7D8F818300831002BF7D02246CE
:1027300048469847041EE4DBB86901A90830FFF752
:10274000ADFF04460028DCD1144B019A9A42E2D92D
:10275000D5E71148984704460028D2D13B7F53B1B2
:10276000284604F0EBFB3B7F0D4ADB0303F47023A8
:1027700043F0400353602846D6E9011204F03BFCC5
:1027800004460028BDD12846FFF7E8FE044600288D
:10279000B7D1F3689847B4E7948B000840597307A2
:1027A00000A8004037B543680C461D6C114805F081
:1027B00041FFD8B101A9D5E90530012B88BF083008
:1027C000FFF76CFF00280DDB0B4B019A5B6803F4ED
:1027D0007023B3F5803F02D3DB0BB2FBF3F2002092
:1027E000226001E06FF0040003B030BD6FF0120012
:1027F000FAE700BF948B000800A80040064B1B6955
:1028000003F03803102B05D0182B044818BF002004
:10281000400870470248FBE7004402588055C82032
:1028200000366E01384B10B518680B88C3F30B03E4
:10283000132B37D813B96FF0850032E0013B122B10
:10284000F9D801A454F823F0D128000895280008ED
:10285000D7280008F5280008DD28000837280008D8
:1028600037280008E1280008E5280008E5280008C6
:10287000E9280008E9280008ED280008F1280008E8
:10288000DD280008F128000837280008C9280008BA
:10289000C9280008002010600B68B3F5805F2BD2B8
:1028A000002010BDD42B0FD003F62873C3F30B0305
:1028B0001C2BC0D8012404FA03F3144C234205D185
:1028C00040F211142342B6D04008E4E78008E2E762
:1028D000FFF794FFDFE74FF4FA40DCE70C48DAE754
:1028E0000C48D8E70C48D6E70C48D4E70C48D2E7A8
:1028F0000C48D0E70C48CEE7C3F313330133B0FBE9
:10290000F3F01060CCE700BFE805002400101111BF
:10291000006CDC028055C820C02A6410000E270716
:10292000001C4E0E00D8B80500366E01A74B73B5DB
:10293000D3F8E02042F00072C3F8E020D3F8E020A2
:1029400002F000720192019A1A6822F480221A6041
:102950001A6842F480321A601A689403FCD55A6FE0
:1029600042F001025A67994B5A6F9007FCD51A68DA
:1029700042F480521A601A689104FCD5944B9A690B
:1029800022F440429A619A699204FCD58F4B1A69ED
:1029900002F03802182A16D11A68560706D41A68A7
:1029A00042F001021A601A685507FCD5874B1A6974
:1029B00022F007021A611A6912F0380FFBD19A69E6
:1029C00022F00F029A61814B1A6822F080721A601D
:1029D0001A6822F080621A601A6822F080521A6027
:1029E0009A6A22F0030242F002029A629A6A22F480
:1029F0007C7242F0C0029A62DA6A22F00C02DA6259
:102A0000DA6A42F00202DA621A6B22F4FF7222F0F2
:102A1000010242F489721A63DA6A22F00102DA6270
:102A20001A6B22F47E421A63DA6A42F48032DA6266
:102A30001A6B22F4FE0242F480321A63DA6A42F41C
:102A40000032DA621A6B22F0FE4242F080721A63A0
:102A5000DA6A42F48022DA621A6842F080721A60FE
:102A60001A689401FCD59A6A22F47C3242F400522E
:102A70009A62DA6A42F0C002DA62DA6A22F020026E
:102A8000DA629A6B22F4FF7222F0010242F027020E
:102A90009A63DA6A22F01002DA629A6B22F47E42BA
:102AA00042F4C0629A63DA6A42F40022DA629A6BF4
:102AB00022F4FE0242F440329A63DA6A42F480124F
:102AC000DA629A6B22F0FE4242F080729A63DA6A0E
:102AD00042F40012DA621A6842F080621A603B4BDC
:102AE0001A681001FCD59A6A384C22F07C7242F4C4
:102AF00000129A62DA6A42F44062DA62DA6A22F416
:102B00000072DA621A6C22F4FF7222F0010242F0C3
:102B10000F021A64DA6A22F48072DA621A6C22F402
:102B20007E4242F400721A64DA6A42F48002DA6287
:102B30001A6C22F4FE0242F440321A64DA6A42F459
:102B40000002DA621A6C22F0FE4242F080721A64CD
:102B5000DA6A42F08072DA621A6842F080521A60D1
:102B600023689900FCD51B4EFFF748FE0546B0428E
:102B700002D8194801F0FEFEA369144A23F47063D9
:102B8000A361A36923F00F0343F00803A361E36982
:102B900023F0700343F04003E361E36923F4E0634F
:102BA00043F48063E361A36923F0700343F04003BF
:102BB000A361236A23F0700343F040032362236977
:102BC00023F0070343F00303236107E000440258A6
:102BD00000480258BF2A6410C02A6410136903F029
:102BE0003803182BFAD1B54202D90B4801F0C2FEC6
:102BF0000A4B9A6922F440429A619A699204FCD580
:102C0000074A0020136923F400431361054B064A69
:102C10001A6002B070BD00BFC02A6410004802589C
:102C200000440258E80500248055C820132808D81D
:102C3000054BC34013F0010F14BF00206FF0850057
:102C400070476FF0850070473AFF0D002DE9F041A5
:102C500043681446481E5A69D3F81080824212D93C
:102C6000DD69470105EB401600F04CFA074B1B5C91
:102C7000002043445B689BB26360EB596370B37A96
:102C80002370BDE8F0816FF01500FAE70DA500088C
:102C900070B505464668184C204605F0CBFC38B3A5
:102CA000A3681B681BB96FF00404204670BD204662
:102CB0003146984704460028F5D1B368284698471E
:102CC0002346224671698B4206D32B691A602B6911
:102CD0005A602B699A60E8E7F16901EB43118A7247
:102CE000F169307E01EB4311184401334860E9E794
:102CF0006FF01204D9E700BF948B00082DE9F04172
:102D000043684C1E07465A691E69A2422AD9DD69EA
:102D100005EB441595F80980B8F1000F04D00023A5
:102D2000AB720020BDE8F0812146304600F08AFAFF
:102D30000028F6D0204600F0E5F90C4B21461A5C3D
:102D40003046935923F01003935100F0A3FA214623
:102D5000786804F05DFB2146304604F045FB85F8B9
:102D60000A80DEE76FF01500DCE700BF0DA5000864
:102D70002DE9F04F95B0D0F804900E46834603A895
:102D80001446D9F81070013E05F015FCD9F814204E
:102D9000B2427AD9D9F81CA073010AEB4615019307
:102DA000AA7A2AB16FF00F08404615B0BDE8F08F3F
:102DB0003146384604F018FB80460028F2D13146EF
:102DC000DBF8040004F024FB628802F47E62B2F5B2
:102DD0007E6F09D10123AB726B72A369AB6163692A
:102DE00085F81C806B61DFE722695169B1F5803F8E
:102DF0004BD26178490703D199F80C30002B67D08A
:102E0000A188E3888B4240D1042B02D0013B012BE7
:102E10003BD8137FC3F38012B2EBD31F35D101230C
:102E2000AB72A369AB617301627802F007024AF8E2
:102E30000320012A63696B61A388EB60E3882B613F
:102E400023691B7FC3F380132B772369D3E9001019
:102E500002BF04915A6803922268C2F3C33218BFBA
:102E6000CDE90310032A10D8DFE802F0180212158A
:102E70004FF480320D92627802F00702012A0FD0DF
:102E8000022A1DD00AB980221BE06FF015088BE7DB
:102E90004FF40032EEE74FF44032EBE70022E9E76F
:102EA00040221B7F0592C3F38102C3F30113012A61
:102EB0000ED0022A0FD0002AE7D14FF480620BE037
:102EC00000221B7F0592C3F30112C3F38103EEE7D7
:102ED0006FF0850868E70022012B0892F8D0022BDA
:102EE0007AD0002BD1D14FF40073079320462B7F6B
:102EF0001B02069373015AF803309A1E5342534142
:102F00002B72A288002A92FAA2F33E4AB3FA83F304
:102F100008BF4FF0FF3352F82330E2880993002AAC
:102F200092FAA2F3384AB3FA83F308BF4FF0FF33A3
:102F300052F823300A93297A00F0BCF91090204609
:102F4000297A00F0C5F923691190587F00F00F002D
:102F500004F02CFC0F9003A804F001FC236980000E
:102F60000E902A7A002A39D0A2885B693046B3FBDA
:102F7000F2F30B932378254C0C9300F0C3F803AACB
:102F80000146384601F0A4FC304600F0BBF8225C54
:102F9000D35943F01003D3512B7F3BB1304600F09F
:102FA000B1F8225CD35943F00803D3510E9B30464D
:102FB000042B15D100F0A6F8235C30463B445A6937
:102FC00042F004025A6100F09DF8235C3B445A69C8
:102FD00042F080025A61E7E6002386E7E288C4E710
:102FE00000F090F8235C30463B445A6922F004021A
:102FF0005A6100F087F8235C3B445A6922F0800252
:10300000E8E700BFDC980008E89800080DA5000874
:103010002DE9F84F9946436892464C1E5A691D693E
:10302000A24212D9D3F81CB021462846670104F009
:10303000DBF906460BEB441800285DD15BF807303E
:10304000012B07D033F0020333D06FF01506304662
:10305000BDE8F88FDFF8A8B0204600F053F81BF861
:10306000003020462B44C3F80CA000F04BF81BF8AE
:1030700000302B44C3F8089098F808302046DFF859
:1030800080904BB300F03EF819F80010D8F80C30DF
:1030900029440A984A68B0FBF3F3120C1204134354
:1030A0004B6001232146284688F80A3000F0BCF81E
:1030B000CDE7DFF84CB0204600F024F81BF80030D4
:1030C00020462B44C3F808A000F01CF81BF8003081
:1030D0002B44C3F80C90CFE700F014F819F8002047
:1030E000D8F810102A440A985368B0FBF1F71B0C6B
:1030F0001B041F435760D4E76FF00F06A7E700BF1C
:103100000DA50008014B53F8200070475C9A000899
:10311000014B53F8213018473C9A0008014B53F8F3
:10312000213018471C9A000808B5044B53F8213089
:103130009847003818BF012008BD00BFFC9900085F
:1031400008B5044B53F821309847003818BF0120C8
:1031500008BD00BFDC990008014B53F82130184727
:10316000BC990008014B53F8213018479C9900087E
:10317000014B53F8213018477C99000808B5044BDF
:1031800053F821309847003818BF012008BD00BF10
:103190005C990008084A10B552F82120074CA25C3F
:1031A000835813F0100304D0FFF7CAFF00F00100AA
:1031B00010BD1846FAE700BF5C9A000815A5000884
:1031C000084A10B552F82120074CA25C835813F02E
:1031D000080304D0FFF7A8FF00F0010010BD184657
:1031E000FAE700BF5C9A000815A500080C4B0D4AD1
:1031F00053F82130D35C034470B55B6905460E4635
:103200001B0602D40024204670BDFFF7B7FF04461A
:103210000028F7D03146284604F092FAF3E700BFC1
:103220005C9A000815A50008044B054A53F82130A4
:10323000D25C835843F00103835070475C9A0008C6
:1032400015A50008044B054A53F82130D35CC0583B
:1032500000F00100704700BF5C9A000815A5000847
:1032600038B50A4B04460A4A53F82130D25C8358D9
:1032700023F0010383502046FFF7E4FF05460028B2
:10328000F9D12046FFF74AFF284638BD5C9A00086E
:1032900015A50008054B064A53F82130D35C1844A5
:1032A000436923F080034361704700BF5C9A0008C4
:1032B00015A5000841B14389043B0C2B9ABF034A72
:1032C00052F82300002070470389F5E72899000889
:1032D00041B10389043B0C2B9ABF034A52F82300E7
:1032E000002070474389F5E7F498000870B54568F9
:1032F0000C46124BA86812491678884218BF002362
:10330000A97B687B0144B14202DA6FF0150070BD01
:10331000297B8C42F9D228691B6800EBC40150F864
:103320003400097998470028EFD1AA6852F8243070
:1033300023F0FF03334342F82430E8E7109B0008F2
:103340000008024010B50B4641680B4A0B488C68D8
:10335000844218BF0022087B984202D86FF0150003
:1033600010BD0869526800EBC30150F833000979B9
:1033700090470028F4D0F1E7109B000800080240B5
:1033800010B50B4641680B4A0B488C68844218BF45
:103390000022087B984202D86FF0150010BD086922
:1033A000926800EBC30150F8330009799047002878
:1033B000F4D0F1E7109B00080008024073B50C46FA
:1033C00041680D4D8E680D48AE4218BF00200D7B40
:1033D000A54203D86FF0150002B070BD0D69069EBE
:1033E00005EBC40109790096C66855F83400B0476A
:1033F0000028F1D0EEE700BF00080240109B000853
:1034000038B540680B460B4C85680B49A54218BF80
:103410000021047B9C4202D86FF0150038BD006982
:103420000C6900EBC30550F833002979A047002848
:10343000F4D0F1E700080240109B000838B5456859
:10344000114C204605F0F6F818B96FF0120420462A
:1034500038BDA3681B6813B96FF00404F7E7204672
:103460002946984704460028F6D1AA68074B9A4295
:10347000EDD1074805F0DEF80028E6D0054805F054
:10348000D9F80028E3D1E0E7948B00080008024057
:10349000148C0008F48B00082DE9F843D0F8048060
:1034A0001746D0F810900D46D8F808001E4603F0D5
:1034B0003CFAB7F5001F044616D1D8F80840284654
:1034C000FEF71EFC84420CD1294603F02EFA044676
:1034D00003F030FA2046FEF701FC0021204603F0FD
:1034E00032FA0020BDE8F883B7F5800F20D0B6F19E
:1034F000806F19D0B6F1C06F18D0B6F1007F1AD125
:1035000002264A460F492046FEF7C8FBB0B9D8F854
:103510000810284603F040FA2046314603F013FA1B
:103520002046FEF7A3FBDCE70126EAE70326E8E7EF
:103530006FF08500D6E76FF01500D3E76FF00F004E
:10354000D0E700BFC379000838B503690446586066
:103550000A4D284605F06EF860B1AB6861681B68DB
:103560000C3123B12846984700EAE07038BD6FF06F
:103570005700F9E76FF01200F8E700BF948B0008DE
:103580002DE9F047044600EBC10600251C4FB4426C
:1035900001D1002014E02068C30600F01F0911D4F7
:1035A000656845F02005C0F3481AC0F34420192887
:1035B00023D857F82080B8F1000F0DD16FF012001A
:1035C000BDE8F087B9F1100F04D0B9F1110FEAD1BD
:1035D0006568E8E73025E6E7404605F02BF8002867
:1035E000ECD04B462A460AF00F01404604F0FFF9A2
:1035F000002804F10804CADAE2E76FF01500DFE7FB
:103600002C9C000803292DE9FF410746154607D9E0
:103610000C2922D06FF08506304604B0BDE8F08159
:10362000026912BFC9B202200021578A18BF08469A
:103630000C32274C814205F1080501DD0026EBE73D
:1036400032F9113001317B4393FBF4F604FB16335E
:1036500045F8086C45F8043CECE74FF002080022FE
:103660000DF10E03A221CDF80080ADF80E2004F07C
:10367000B8FA06460028CFD1BDF80E40802C24D0E1
:1036800002460DF10E03A3213846CDF8008004F068
:10369000A8FA06460028BFD1E300BDF80E207D2120
:1036A0000C48C2F3421203F4FF631343084AB3F514
:1036B000806FA8BFA3F5006313FB01000023C117AF
:1036C000FDF750F9C5E90002A6E76FF03C06A3E755
:1036D00040420F00C0F35E0170B5056906460C4616
:1036E00095F830301F2B18D104221049A0B204F0F5
:1036F000ADFC002810DBC2B24121304604F0F3FAE1
:10370000002809DB0A4B84FB0332002A02DA4FF659
:10371000FF729B181B0C6B8270BD1E2B02D1042202
:103720000449E3E76FF01200F6E700BFD49F0008FA
:1037300074462B01C49F000810B500225B2104468B
:1037400004F0D1FA00280FDB00225C21204604F0AF
:10375000CAFA002808DB20464FF4C053034A5E2112
:10376000BDE8104004F09CBA10BD00BFEDA50008F4
:103770000BB2043B032BF0B51DD8072904690F4D8C
:1037800018BF0439E78807BF02200021C9B20846E4
:10379000814202F1080201DD0020F0BD34F9113050
:1037A00001317B4393FBF5F605FB163342F8086CB9
:1037B00042F8043CECE76FF08500EEE740420F0072
:1037C000F8B50D460769064605220C49284604F05F
:1037D0003DFC041E0FDBE2B20F21304604F0DFFB9C
:1037E000041E08DB06484FF434020023A5FB000149
:1037F000FDF768F8F8802046F8BD00BFE49F000898
:10380000B0DF5F0050EA010310B50ED0084A002374
:103810001488844201D9184610BD02D154888C42C4
:10382000F9D2013304320E2BF2D16FF01500F3E719
:10383000F89F0008F8B5456806460769E86904F08E
:10384000F9FE002876D03E4B7E62BB6195F82A30A7
:1038500095F82420BBB15621304604F044FA041EEA
:103860000FDB95F825205721304604F03CFA041E62
:1038700007DB95F826205321304604F034FA041E65
:103880000ADA2046F8BD95F825309200582142EA20
:10389000831202F0FC02E7E795F827205421304616
:1038A00004F021FA041EECDB6B8CE86995F820101B
:1038B00043F480320124066913F0010FD0F808C0E8
:1038C000336804FA01F414BF2343A3433360012691
:1038D000DCF80030984795F820301A4A06FA03F3CE
:1038E000C7E90123E8698368DB6933B332463946A7
:1038F0009847041EC5DBE86995F820106B8C826838
:103900009569002DBDD002698E4003F04003126816
:1039100016424FF0A0720CBF43F0B86383F070738F
:1039200023F0794323F47F0323F47F4323F0BF0381
:10393000A847A6E76FF01204A3E76FF05704A0E7CB
:103940006F8000087D800008402970B51646046924
:1039500001D00C2944D1606AFCF770FD2349FCF7C3
:10396000C5FD0546208EFCF76DFD01462846FCF797
:1039700071FE0546A06AFCF761FD01462846FCF78A
:10398000ABFC0546E08DFCF75DFD01462846FCF7E3
:1039900061FE0546A08DFCF755FD01462846FCF763
:1039A0009DFC4FF04F410546FCF73EFFD8B94FF064
:1039B0009E412846FCF74CFF0446A0B92846FCF778
:1039C0005BFF3060FCF73EFD01462846FCF784FCB7
:1039D0000749FCF78BFDFCF74FFF7060204670BD78
:1039E0006FF08500FBE76FF02100F8E70000704101
:1039F000002474492DE9F84F476804460669D7F852
:103A00000080DFF8E090484604F014FE002865D0FE
:103A1000D9F808B007F1040ADBF80030EBB15146E1
:103A2000484698470546C0B9DBF80C3006F1240239
:103A30009BB151464846984700280EDBD8F8103015
:103A40006422F385D8F808309BB25343B362D8F8A8
:103A500008301B0C06D0012B3ED06FF00405284621
:103A6000BDE8F88F1E23B38506F1100004F00BFEAD
:103A700001220021304604F00DFEFB6820469847E5
:103A8000636819491A6823695B6A03F5742303F2B2
:103A90003F238B4296BF15497F23B3FBF1F3116897
:103AA00021F0FE4141EA03631360136823F480139D
:103AB0001360136823F470631360136843F4702376
:103AC000136063681B681A6842F001021A605A6A40
:103AD00042F001025A62C2E78223C4E76FF0120586
:103AE000BDE700BF948B0008BFDD910740420F0087
:103AF000F8B50C46036941685D682379012B15D040
:103B00009F1E7E427E41B6026279022A96BF464FD0
:103B10004FF4005737F81270A279022A09D0042A0C
:103B200030D0003B18BF01231B0306E04FF4C066F2
:103B3000EAE7B3FA83F35B091B07E2790968012A14
:103B400014BF4FF0000C4FF4407CA5421DD10A6811
:103B500022F0805222F4B05232431A430A604B687A
:103B600023F440533B434B6043681A68936823F443
:103B7000407343EA0C039360296804F018FB00EAE1
:103B8000E070F8BD4FF48053D7E7D1F800E00EF4B1
:103B9000C06E764506D0D1F800E02EF4C06E4EEA35
:103BA00006060E6041680E68716801F440518F424C
:103BB00004D0716821F440513943716041680E6846
:103BC000316801F010218B4204D0316821F01021BE
:103BD0000B433360436819688B6803F440739C455A
:103BE00005D08B6823F4407343EA0C038B60436871
:103BF0001B689968490405D5032A09D09A6822F4FC
:103C0000804204E0032A03D19A6842F480429A6019
:103C100021682B68994205D004F0C9FA0028B0DB6E
:103C200023682B600020ACE730A00008F7B50646FB
:103C3000446805695E48286004F0FCFC002800F038
:103C4000B0802868E16883681B68002B00F0AC80B6
:103C50009847002832DB01AA0021206A03F075FF93
:103C600000282BDB019B002219791868FFF788FCDC
:103C7000002823DB756833692C685F68236823F0AC
:103C800001032360686804F0D5FC002800F08980F7
:103C9000D5E901018368DB6803B1984754E8003F28
:103CA00043F00C0344E80032002AF7D1394630468D
:103CB000FFF71EFF002803DA6FF0150003B0F0BD18
:103CC0002B7D1BB1A36843F00803A3606B7D1BB180
:103CD000636843F400436360AB7D1BB1636843F4E6
:103CE00080336360EB7D1BB1636843F40033636032
:103CF0002B7E002B43D02F4B9C4226D0A3F54C4368
:103D00009C4222D003F580639C421ED003F5806361
:103D10009C421AD003F580639C4216D003F54443BD
:103D20009C4212D0A3F51C439C420ED003F5806345
:103D30009C420AD003F51C439C4206D003F58063E5
:103D40009C4202D01C4B9C42B6D173681A6893689F
:103D500043F48043936023686A7E23F0787343EAD8
:103D6000425323602368AA7E23F4F81343EA0243F4
:103D70002360EB7E1BB1A36843F40043A3602B7F59
:103D80001BB1236843F000532360236843F0010311
:103D90002360E3699A02FCD5E3695B02FCD500204D
:103DA0008CE76FF0120089E76FF0570086E700BFDD
:103DB000948B000800100140000C0058F8B54368CF
:103DC00002460E4691F805E01C68036908795D68B3
:103DD00001288B7915D1BEF1020F76D9022B1F462F
:103DE0004FF4C0614FF4005C00F08780042B7FD05B
:103DF000002800F08880C31E012B7BD86FF085005F
:103E0000F8BD02280AD1BEF1020F6AD9022B1F4663
:103E10004FF480610BD04FF4005CE7E7BEF1020F76
:103E200062D9022B1F4661D1002877D00021C31E22
:103E3000012BE3D90020022703237345DED104F0D0
:103E400074F9B842DAD1F3795BB3012B6ED1394BF7
:103E50009C4226D0A3F54C439C4222D003F58063BC
:103E60009C421ED003F580639C421AD003F5806308
:103E70009C4216D003F544439C4212D0A3F51C4348
:103E80009C420ED003F580639C420AD003F51C438C
:103E90009C4206D003F580639C4202D0264B9C4294
:103EA000ACD123683146104623F001032360FFF7AD
:103EB0001FFE0028A2DB236843F00103236096E87D
:103EC000030085E8030000209AE74FF4C0611B4F10
:103ED000022B37F81EC01F4688D170B94FF08050B2
:103EE00011E04FF48061F2E70021F0E7002192E752
:103EF000002883D14FF4805005E0C31E012B7FF6CC
:103F00007DAF02270020BCF5805F0BD0BCF5405F81
:103F10000AD0BCF1000F8FD101238EE701464FF08C
:103F2000805089E7002388E7022386E7032B8ED0A1
:103F300064E700BF00100140000C005830A00008EA
:103F40002DE9F047064607694468384D284604F0D5
:103F500071FB002867D02369012B28D8BC684FF07B
:103F600001080834D7E9023203EBC203A4F10802C6
:103F7000934228D8384604F0FCFA0121706804F016
:103F8000CFFA002802DA10F1860F1AD174680021E6
:103F9000204604F0C5FA002806DBAB6861691B689F
:103FA000002B3AD02148984700EAE07009E0AB685E
:103FB00061699B6908319BB3002228469847002815
:103FC000CCDABDE8F08754F8080C04F033FB50B3AA
:103FD00054F8080C14F8041C34F8023CDA07D0F842
:103FE00010E008FA01F9D0F808A054BF43F4B01368
:103FF00083F4D013DEF800C0083423F48012DB070A
:104000004CBF49EA0C032CEA0903CEF80030DAF879
:10401000003098470028A5DAD3E76FF05700C3E7D0
:104020006FF05700CDE76FF01200CAE7948B0008DD
:104030002DE9F04F8DB0D0F804A080460E460469FB
:104040009146DAF80070009312B9002B00F01B8340
:10405000B388990400F1C7804FF0FF324FF0FF336F
:1040600004F1100000F0D8FF6660D8F8103004ADFD
:10407000DFF830C20193D8F804B0BCE80F000FC5D8
:104080009CE80F0085E80F00019ADBF800501268E9
:10409000B388964240F0B3801A0508D5B9F1000FF5
:1040A00000F0AA804FF4C121284604F01AF9B38821
:1040B0004946009A2046C3F34513082B0CBF012341
:1040C000022304F033F93D68FB6805F4006503F44E
:1040D000C0231D439AF81830EBB1B388DB071AD41C
:1040E000002D40F057814946304604F0F7F9B0F111
:1040F0000009C0F28C800099304604F0EFF90028E6
:10410000C0F2BF828145B8BF81467B681B0C1B048F
:1041100043EA09037B603B6843F001033B60FB68B3
:104120005E0200F14481012004F05DFAD8F81060CD
:104130003068002840F044812368DAF800609B88EA
:10414000D90700F17B819AF81830002B00F05681D6
:104150003368F26803F4006902F4C02349EA0309F2
:10416000B9F5C12F40F0398173699A0700F1418197
:10417000DAF80060736913F4787F00F0EF817369F7
:104180005F0603D5B36943F04003B3616FF00409E0
:10419000D8F80470D8F810603D686B69DB0700F14F
:1041A0004082EB68580200F13F826B69990503D5A4
:1041B000AB6943F40073AB61397E2B68EA68002970
:1041C00000F04D82AB6943F01003AB61AB6943F083
:1041D0004003AB61AB6943F00803AB616B681B0C38
:1041E0001B046B6044E2A369002B7FF435AF636866
:1041F0009E427FF431AF38E74FF4C02154E7C3F358
:104200004512082A12D0102A10D06FF085092368B1
:1042100013B19B889B0405D40023636004F1100054
:1042200000F0C6FE48460DB0BDE8F08F1B0405D572
:10423000EB6823F4601343F40023EB601A48DBF8C7
:1042400010208368DBF81410012ADB6888BF08316E
:1042500013B96FF00409DAE703AA98470028F8DBDE
:10426000039A0123316822FA03F0884205D9013309
:10427000092BF8D16FF01509C9E72A680CA922F0BB
:10428000010201EB83032A60AA6853F8243C22F060
:10429000E0421343AB60B388980707D4EB6823F080
:1042A000007306E02C960008948B0008EB6843F03E
:1042B0000073EB60B38813F0040FEB6814BF43F096
:1042C000807323F08073EB60B18811F4006104D037
:1042D000B9F1000F52D04FF4C121284604F001F883
:1042E000B38813F0100FEB6814BF43F4000323F4FA
:1042F0000003EB60AB6823F48003AB60B268B38863
:10430000002A3ED0D90706D4EB68DA0003D42B6824
:1043100043F480532B60EB6823F0105343F0806329
:10432000EB60B38813F0010FEB6814BF23F4800334
:1043300043F48003EB60B388C3F34513082BAB68E9
:1043400023F01F030CBF43F0070343F00F03AB60E0
:10435000EB68DBF80C2023F00F031343EB60EB68F2
:10436000DBF8082023F0F00343EA0213EB60AB68AC
:1043700023F4F073AB60019B1E6098E64FF4C021FC
:10438000ABE713F0010FEB6823F0105308BF43F0C5
:104390000053C5E7B5F5C12F30460CBF494600991B
:1043A00004F09CF800288146BFF6AFAE2FE73B68CB
:1043B00043F400733B603B6898053FF5B4AEFAE701
:1043C0008368002B3FF4B8AE0121083004F0BDF83B
:1043D0003368186904F007F9AEE67369DB0703D5A3
:1043E0002146304604F028F8B9F5C02F7FF4BCAE62
:1043F000BEE62146304603F0D6FFB9E63368F268E0
:1044000003F4006902F4C02349EA0309B9F5C02F97
:1044100008D1DAF800004369D907FCD5214604F039
:104420000BF8A5E673699807FCD52146304603F0E2
:10443000BAFFB9F5C12F3FF49BAEEAE77269920764
:1044400069D5A26C002A66D0C3F34513626C082BB1
:104450004CD1137886F82030A36C9BB1013BA36448
:10446000002B3DD1636B08336363A36B013BA363F4
:10447000012304F1480204F1380104F1340003F08F
:104480003FFF60647369DB077FF572AEE36C002B5E
:104490003FF46EAE226D002A3FF46AAE2268928825
:1044A000C2F34512082A42D196F830201A70236DC3
:1044B000002B3FF45DAE013B2365002B30D1E36B55
:1044C0000833E363236C013B2364012304F15002AE
:1044D00004F1400104F13C0003F012FFE06447E600
:1044E000636C002BCED001336364CBE71388338435
:1044F000A36C002BC6D0013BA3643BB9636B0833AC
:104500006363A36B013BA3630223B2E7636C002BDD
:10451000B8D00233E8E7336923F002033361B1E72F
:10452000E36C002B3FF424AE0133E36420E6328ECB
:104530001A80236D002B3FF41BAE013B23653BB972
:10454000E36B0833E363236C013B23640223BDE781
:10455000E36C002B3FF40CAE0233E6E7B5F5C12F58
:10456000A36C4FD1002B46D1236D73B3304603F0BB
:10457000A7FF0028FAD1336823F0010333602368D2
:104580009B88DD0712D4256C0146A94224D1C3F3D0
:10459000022390FBF3F203FB1202002A3CD1726863
:1045A000B0FBF3F0130C1B04184370604FF4C021F0
:1045B000304603F096FE336843F001033360F3683E
:1045C000590210D4012004F00EF83B68FD6803F492
:1045D000006305F4C02514E0E26B02EBC102013177
:1045E00052681044D1E7336843F400733360336892
:1045F0009A05E7D4FBE73D68FB6805F4006503F422
:10460000C0231D43A36C002B7FF496AD236D002BBC
:104610007FF492AD9946BBE53B686FF01509FB68E6
:10462000B6E595F83030B8E5284603F049FF002894
:10463000FAD13368002B3FF4B8AD9A68002A3FF4F2
:10464000B4AD998811F480587FF4AFAD186903F0C8
:10465000CAFF30684146083003F077FFA5E503F450
:10466000006302F4C0221343B3F5C02F3FF4B6AD8C
:1046700033689B88DA043FF5CAAD284603F085FE0F
:10468000C5E58146C3E5DDF80090CBE54FF0E023BA
:104690000F4910B59C691A6908689B6902F4803259
:1046A0000C4934B993B903464AB90A681044C01A90
:1046B00010BD002B08BF03460AB9A342F5D90A680A
:1046C00002440A604FF0E0221269EEE70446F3E785
:1046D000CC110024C81100240A4B1022002083F8BA
:1046E00023204DF2D862084B1A604DF2D762074B77
:1046F00018604FF0E0235A6198611A6942F007028E
:104700001A61704700ED00E0CC110024C8110024AC
:10471000684620F007018D4619B5FFF7B7FF11492C
:10472000114B0868D3E90042001942F10002C3E9C5
:1047300000020E4A00230B604DF2D863D2E900411B
:10474000001BB0FBF3F043431B1941F10001C2E928
:10475000003101F0D7FAFCF705FDBDE819408546A8
:10476000704700BFC8110024E8060024E0060024BA
:104770002DE9F041DFF8E08099B1421C0BD14FF0F8
:10478000E022136923F0010313614FF07F43C8F85F
:104790000030BDE8F081D8F80060012807DC002770
:1047A0000BE0431CD8F80060F7D14FF4987040F24A
:1047B00031139842A8BF1846471EEFF31185102306
:1047C00083F31288BFF36F8FFFF760FF234C4FF026
:1047D000E0239969D4E9002380184FF0000243F1E7
:1047E0000003C4E900031E4B1A601E4B1A68831AAB
:1047F0002ED44DF2D86C0CFB073303F55643D73358
:10480000B3FBFCF7131A40F66D520CFB07339342CF
:1048100038BF1346144A934228BF1346C8F80030E5
:104820004FF0E022013B9069536100238142936184
:10483000A1EB0003D4E9001238BF9B195B1842F1C9
:104840000002C4E9003285F31188BFF36F8FA0E73F
:1048500040F66D53E2E700BFCC110024E8060024C7
:10486000C8110024E00600248020FF0038B5EFF3D3
:104870001185102383F31288BFF36F8F084B1C68D8
:10488000084B1B68E41AFFF701FF85F31188BFF39B
:104890006F8F4DF2D8632044B0FBF3F038BD00BFFA
:1048A000E8060024E006002438B5EFF31185102354
:1048B00083F31288BFF36F8F044B1C68FFF7E6FE8B
:1048C00085F31188BFF36F8F204438BDE8060024BC
:1048D000264BF0B55C5CD2E90237065905193B431B
:1048E000176926F477263B43576926F47E663B43D7
:1048F00097693B43D7693B43976A3B43D76B3B433D
:10490000176C3B4333430351D36A93B16E69176B02
:1049100026F007063B4333436B610359566B23F084
:10492000C073334303510359966B23F4C0033343DD
:104930000351536801F18051EB6001F502411368A6
:10494000AB606B68146A1B0C1B0423436B60084B41
:10495000526AC01A18BF0120400150F8213023F0DC
:10496000FF03134340F821300020F0BD86BE00084D
:1049700000000240024610B578B14F498B6913F42C
:1049800040433FD14D484E4C1044A04207D28B6962
:1049900003F44043B3F5404F51D101207CE0494836
:1049A000494C1044A04246D948481044A04244D93A
:1049B00047488242886900F4404007D9B0F5404F2B
:1049C000EBD08969012001F440414CE0B0F5404F43
:1049D00045D1404B1344404A93428CBF00230123EE
:1049E0003E490A6822F00F021A430A600A6802F080
:1049F0000F029A425ED0086800F00F00C01A18BF7C
:104A0000012049E000232C48816901F44041B1F5BF
:104A1000404F2BD1324933481144814246D92D4968
:104A2000A0F574201144A0F51070814240D92E49A0
:104A30008A42D5D9B1E70223E5E70123E3E78B6991
:104A4000002003F44043B3F5004F4FF0030319D0A7
:104A50002649274C1144A14226D9264918E08969E4
:104A6000184601F44041B1F5004FF0E7816901F4C7
:104A70004041B1F5004F10D11F49204811448142F7
:104A800014D900201E491D4C1144A1420CD91D49C6
:104A90008A4282D80028A3D010BD0C491A4811447C
:104AA000814203D30020D3E70123F3E7022397E7F2
:104AB000012395E71846A1E7004802587FA77BF33A
:104AC00040D2DF03FFC4A7F77F1D2C047FE2D3FB96
:104AD000801D2C043FA901FC7F14EF03002000522D
:104AE000BF9412F8BF56FE03C056FE033FF1E9FD26
:104AF000BF0E1602C00E1602FF1E0AFA7FF0FA025F
:104B00007F0F05FD80F0FA02C0E1E40008B5144B08
:104B1000A8220021184603F028FF0322114903466A
:104B200002614261104A8161C2614FF48062026297
:104B3000002282624262C26201660C494166102113
:104B400081660267C2664267BFF35F8F084911F84A
:104B5000010D98540132102AF9D1BFF35F8F08BDBF
:104B6000100400248EBE0008100000240000002461
:104B7000A7BE000810B4BFF35F8F0B4A00230B4998
:104B8000C85C12F8014D844209D10133102BF7D1D2
:104B90000023BFF35F8F23B110BCFFF7B7BF012322
:104BA000F7E710BC704700BFA7BE00081004002440
:104BB00038B5EFF31185102383F31288BFF36F8F9D
:104BC000064B9C6803F049FD85F31188BFF36F8F96
:104BD0002046BDE83840FCF7F7BC00BFD0110024E8
:104BE00038B50A4B53F82040013053F82050A54205
:104BF00000D838BD606830B1037FDB0701D403F013
:104C000001FD0834F3E723689847FAE7A09F0008FE
:104C100070B52F4B01222F4C86B02F4D03201A70F8
:104C2000FFF7DEFF01F0E6F8AC4219D12B4C04206F
:104C30002B4DFFF7D5FF26463034AE4216D3274C16
:104C400000F070FD274EAC422CD300F07FFD01F048
:104C500097FB254A137B23F00103137306B070BD45
:104C600054F8043B002BE1D09847DDE754F80C3CA6
:104C7000059354F8103C049354F8143C039354F8EF
:104C8000183C029354F81C3C019354F8203C0093C8
:104C900054E90A2354E90C0100F02AFB54F8303C93
:104CA0005E65C8E7D4E90A23B3F1FF3F08BFB2F15C
:104CB000FF3F05D052EA0301206803D100F002FE55
:104CC0003034C0E73146183000F08CFFF8E700BF01
:104CD000251200242C9600082C960008CC9400087D
:104CE000CC940008F58700087007002470B50023F5
:104CF00086B00122144E01930446144D06EBC016F3
:104D00001349CDE904230F22CDE9023214234FF4D5
:104D1000A07203FB00554FF4C0700E4B00FB041152
:104D20003046009500F0E4FA737B0B4A23F004034D
:104D3000EE602C7473734FF4046304FB0333134469
:104D40006B6006B070BD00BFF0060024D0110024D7
:104D5000C01E00246186000880160024BFB5002014
:104D6000FFF73EFF264B83F30888264D0024F023EF
:104D7000254F85F82230EC772C766C76AC7685F86A
:104D800020406B6A43F4E0236B62FCF7EDFBFCF719
:104D90000DFD4FF0FF33AB62EB62FCF745FE1B4DA0
:104DA000FCF7A0FD1A4800F01DFBFCF711F90120EB
:104DB000FFF716FF0220FFF713FF00F0FBFC154B77
:104DC00015494FF480625D612846144B00940593A9
:104DD0000123CDE90144CDE903433B4600F088FAC5
:104DE0006A7B0646284622F004026A7303F0D6FC6A
:104DF0002046FFF77BFF3A4631462846FCF7B8FCD1
:104E0000C01E002400ED00E0114C000870070024D3
:104E1000F0070024D011002440200024A8BE000880
:104E20002DE9F341044617461E46EFF3118810237F
:104E300083F31288BFF36F8FC368334A7BB18068F6
:104E40009168884219D057EA060318D188F311886F
:104E5000BFF36F8F6FF00F0002B0BDE8F081916873
:104E600091F90E1001332161E3609368A36088F328
:104E70001188BFF36F8F0020EEE72169F2E791F907
:104E80000E106FF07E0290F90E309942A8BF1946BD
:104E90009142B8BF11468B422DDD03F0ECFB054675
:104EA000224641461948CDE9007600F081FB0028F2
:104EB000E1D0EFF31186102383F31288BFF36F8FD5
:104EC000A068D0B1236821699C420AD04BB193F904
:104ED0000E309942A8BF19466FF07E039942B8BFC1
:104EE000194603F0C8FB40B13146084800F0F4FB16
:104EF0006FF00A00B0E70025D2E7002DF4D186F369
:104F00001188BFF36F8FF3E7D0110024261200241D
:104F1000F8B583680546002B3FD0234A9268934238
:104F20003ED1C368012B03D9013BC3600020F8BD0B
:104F3000EFF31187102383F31288BFF36F8F01699A
:104F4000806803F098FB2C68A54207D10023C5E9CF
:104F5000023387F31188BFF36F8FE7E7002CF5D09A
:104F6000002604F11800D4E9003213605A60637B14
:104F7000A66023F00203C4E90066637303F0AFFC8C
:104F8000AC6094F90E3020462B61A66703F006FC56
:104F90003946064800F0A0FBC8E76FF01500C6E7E9
:104FA0004FF0FF30C3E700BFD011002426120024C9
:104FB00070B5EFF31186102383F31288BFF36F8F60
:104FC0000468A0421AD0CCB1002504F11800D4E93D
:104FD000003213605A60637BA56023F00203C4E9CA
:104FE0000055637303F07BFC2046A56703F0D6FBF6
:104FF00031460848BDE8704000F06EBBD0E902328F
:105000009A4218BF0133836086F31188BFF36F8F14
:1050100070BD00BF2712002413B5EFF311811024D7
:1050200084F31288BFF36F8F846844B1013C8460BD
:1050300081F31188BFF36F8F002002B010BD52EAD8
:10504000030406D181F31188BFF36F8F6FF00F0057
:10505000F3E7CDE900230246014800F0A9FAECE7A6
:10506000271200242DE9FF41044610274E4EEFF38E
:10507000118887F31288BFF36F8FD4F88450F5B985
:10508000022104F19C0003F011FB002868D004F118
:10509000940500220121284603F0E8FB0028F8D1FE
:1050A00000234FF0FF324146404802934FF0FF3358
:1050B000CDE9002304F18C0200F0CEFCD7E7D4F850
:1050C00088202B689542C4F8843008BFC4F8883023
:1050D000D4F89C3043F00203C4F89C30EB6823F012
:1050E000040343F00103EB606B6888F31188BFF39E
:1050F0006F8F28469847EFF3118887F31288BFF324
:105100006F8FEB68D80623F0010236D4EA60EB68B3
:105110009A0716D523F002033068EB6088B1036864
:10512000002170B14268954235D1036869BB72684D
:105130003360824200D17360002340F8083BFFF7E0
:1051400037FFD4F89C3023F00203C4F89C3088F376
:105150001188BFF36F8FDB0589D400F033FB86E73E
:10516000D4F89C30D9069BD5C4F89C0088F31188EC
:10517000BFF36F8F04B0BDE8F08123F01103EB6043
:1051800005F11000FFF714FFC1E70B60736883425D
:1051900008BF7160D0E723B11A680146184613466C
:1051A000BFE71A46F9E700BFF011002428120024D7
:1051B000F8B5C36804460F469A07C3F340062DD4DA
:1051C0005B071BD40B680BB983680B60E368DD07D2
:1051D00045BFA368022601263B603D68002D3CD0F8
:1051E0001F4B9A68D5F880309A420AD0D5F89C3087
:1051F000D807C3F3800214D46FF0120600233B607B
:1052000025E003F088FAD5F89C300028F0D1D907C2
:10521000C3F3C002F0D552B15B0708D46FF00F069C
:10522000ECE7002AFAD1C3F3C003002BF6D1002328
:105230002360D5F8883063B9C5E92144284603F0D6
:1052400040FAE36843F00403E3603B68A360304640
:10525000F8BD1C60C5F88840F0E76FF01506CDE793
:10526000D01100240146014803F045BA90080024FB
:10527000F0B50446002089B0C4E9210004F18C0097
:105280000E9DC4E9230004F19400C4E9250055B340
:105290002879002840F2011008BF0120C4F89C00C2
:1052A00000204FF0FF364FF0FF370094CDE9033078
:1052B000CDE901000D4B2046CDE9066700F066F808
:1052C00055B1296811B1204603F02BFA6B791BB157
:1052D000237B43F001032373204600F0F3FAC4F864
:1052E000804009B0F0BD0120D8E700BF655000083C
:1052F00007322DE9F04322F0070285B00E461F4623
:10530000109900F158037F3204460173042122F002
:105310003F0206F1400941733F2AA2F14008C0E96B
:1053200016334FF0000383600F98E373A073C4E952
:10533000063305D883F31188BFF36F8F084602DF69
:10534000B51820462946FBF7EDFE07300E9B314687
:1053500020F00700C4E91898A0662D1A0293204691
:105360000D9B2A4601930C9B00933B46FCF7D4F916
:1053700000236365044B9B6803B1DB6E2846E3663C
:1053800005B0BDE8F08300BFD0110024F0B50025C2
:1053900087B004460595109D04950F9D03950E9DBD
:1053A00002950D9D01950C9DDDE912760095FFF7A4
:1053B0009FFFB6F1FF3F08BFB7F1FF3F05D056EAA8
:1053C000070305D1204600F07DFA204607B0F0BD66
:1053D0003A46334604F11800014900F003FCF4E7B3
:1053E000F587000840F2011383810023C0E91833D8
:1053F000C366014B98607047D0110024094A6FF0D2
:105400000A0193689967084958674B6843F08053CD
:105410004B60002383F31188BFF36F8F9368986FFD
:10542000704700BFD011002400ED00E070B590F986
:105430000D20437B002A36DBD90634D11B4C63F0A8
:105440007F0322464373E16952F8183F934207D124
:10545000C0E900210860E06111E09942F8D01B68C2
:10546000002BF5D090F90E5093F90E60B542F4D0B0
:10547000AE42F2DD5968C0E9003108605860A569A4
:10548000954200D005B9E568A3685A7BD20604D1DD
:10549000DA897F2A01D9AA6932B1AB4202D0284603
:1054A00000F01AFB656170BD6361FCE7D011002458
:1054B00038B590F90D200146437B002A04DA03F049
:1054C0007F03437303F030F90D4D2A46AB6852F861
:1054D000184F944200D004B9EC688B4207D05A7B35
:1054E000D20604D1DA897F2A01D9A2692AB1A3425E
:1054F00002D0204600F0F0FA23466B6138BD00BFB1
:10550000D0110024B3F1FF3F08BFB2F1FF3F03D039
:105510000249183000F066BB704700BFF5870008ED
:1055200070B590F90D200146437B002A04DA03F0A0
:105530007F03437303F0F8F84B7B1C4C63F07F034D
:1055400022464B7352F8183FE069934207D1C1E9F4
:1055500000200160E16111E09842F8D01B68002B47
:10556000F5D091F90E5093F90E60B542F4D0AE42E9
:10557000F2DD5868C1E9003001605960A569A3688F
:10558000954200D005B9E5688B4207D05A7BD20618
:1055900004D1DA897F2A01D9AA692AB1AB4202D0A3
:1055A000284600F099FA2B46636170BDD0110024A3
:1055B000F8B50E4B0C4611460D4A9868DDE90667B2
:1055C0001060EFF31182102282F31288BFF36F8F05
:1055D0009D68284603F0BAF8284632463B46FFF756
:1055E00091FF2046BDE8F840FFF708BFD011002426
:1055F000F8110024F8B50446EFF31187102383F364
:105600001288BFF36F8F437B49B203F01F02002A59
:105610000CBF0126002639D103F07F032D4D4373C3
:1056200003F082F8437B2A46817363F07F03437360
:1056300052F8183F934227D1E869C4E9002004607A
:10564000EC610FE09842F8D01B68002BF5D093F97D
:105650000EC06145F6D08C45F4DD5968C4E90031CF
:105660000C605C60AC69944200D004B9EC68AB6833
:105670009C4202D0204600F02FFA6C6187F311881B
:10568000BFF36F8F3046F8BDE869DEE79B071ED594
:10569000856803F049F881732B689D4209D16B68D6
:1056A000C4E900531C606C60E8E76A689342F6D076
:1056B0001B68002BF3D093F90E209142F5D08A425B
:1056C000F3DD5A68C4E9003214605C60D6E7817388
:1056D000D4E700BFD011002449B9EFF3058030B9F9
:1056E000054B5A699B689A4201D0FFF787BE81F348
:1056F0001188BFF36F8F7047D0110024034648B95B
:10570000EFF3058232B9064A51699268914201D09D
:10571000FFF774BE83F31188BFF36F8F704700BF2C
:10572000D0110024EFF31181102383F31288BFF30B
:105730006F8F054B9A68D37B013BD37381F311883C
:10574000BFF36F8F704700BFD011002470B5EFF327
:105750001186102383F31288BFF36F8F144DAB684B
:10576000DA7B0132DA732A4652F8184F944200D09D
:1057700004B9EC685A7BD20604D1DA897F2A01D9B0
:10578000A2692AB1A34202D0204600F0A5F923461F
:105790006B6186F31188BFF36F8FEFF311801023D5
:1057A00083F31288BFF36F8FBDE87040FFF7A6BF89
:1057B000D0110024024B03F11802C3E906227047FE
:1057C000D011002470B5EFF31186102383F31288F3
:1057D000BFF36F8F1B4CA168E0690B68814214BF57
:1057E0001A46002249680B605960A368E1692AB92A
:1057F000154AC3E900210B60E3610CE093F90E0048
:1058000092F90E50A84218D0854216DD5168C3E9BE
:1058100000210B605360A5690B4B9D4200D005B978
:10582000E568A3689D4202D0284600F055F930464D
:105830006561BDE87040FFF7E1BD8A42D8D01268CB
:10584000D5E700BFD0110024E8110024F8B550EAD4
:10585000010306460C4603D1FFF7B4FF0020F8BD54
:10586000EFF31187102383F31288BFF36F8F124D6C
:10587000124BA8681860FFF71BFEA8682346324643
:105880000F49183000F0AEF9AA6804463846537B39
:1058900043F004035373FFF7B1FDAB68D3E90A2368
:1058A000B3F1004F08BF002AD8D103F040F8201A06
:1058B00020EAE070D3E700BFD0110024F8110024E3
:1058C000F587000838B50446EFF31185102383F3FC
:1058D0001288BFF36F8F437B5B070FD5183002F040
:1058E000FEFF637B204623F004036373FFF79EFDF6
:1058F00029460548BDE83840FFF7EEBE85F311881C
:10590000BFF36F8F38BD00BF29120024014B986888
:10591000704700BFD01100242DE9F8430446077BEF
:10592000EFF31185102383F31288BFF36F8F437B4E
:10593000190705D585F31188BFF36F8FBDE8F8838C
:10594000D90943F008025DD14273A36813B1204620
:1059500002F0F2FE04F1180004F1580802F0BFFF53
:10596000A66DB04511D04FF0000976B1304602F077
:10597000E3FE06F1180002F0B2FF3046C6F8789058
:10598000FFF754FDA66DB045EFD1DFF8C080D8F821
:1059900008309C423ED1EFF30589B9F1000918BFE8
:1059A0004FF00109D8F81860294A964200D00EB984
:1059B000D8F80C60B34202D0304600F08DF8204693
:1059C000C8F8146000F040FFB9F1000F02D0214880
:1059D000FFF708FDD8F808309C4231D1EFF305837A
:1059E00073BB227BD20718D42846FFF707FDFB07BD
:1059F000A4D5002383F31188BFF36F8F04231846C7
:105A000002DF9BE703F07F0343F00803437302F0D8
:105A10008BFE9AE74FF00009C4E785F31188BFF3C6
:105A20006F8F83F31188BFF36F8F0423184602DF53
:105A3000EFF31180102383F31288BFF36F8FD4E745
:105A400085F31188BFF36F8FD1E700BFD011002419
:105A5000E8110024F0070024D3B5DDE90667089CAF
:105A6000CDE90067FFF7A4FD1CB1034B9B681B69E0
:105A7000236002B0D0BD00BFD0110024044B01222E
:105A8000C01A044BC0105843034B1A54704700BF50
:105A900070080024ABAAAAAA2A120024C3897F2B6B
:105AA00012D80A4B1B6863B1094B90F90E201B6892
:105AB0009A4209DB437BDB0606D1064BC31A18BFAB
:105AC000012303F0010070470023FAE7EC050024EE
:105AD000FC110024F00600240E4B70B51E7C054618
:105AE0000D4C06EB460304EBC304204602F0F7FE20
:105AF0000A4B002228469A55FFF7D0FF48B1084BC1
:105B0000204608491A68013ABDE87040D31700F0F2
:105B100069B870BDD0110024700800242A12002436
:105B2000EC0500247D5A000838B5EFF311851023E9
:105B300083F31288BFF36F8F104B114A9C68106873
:105B4000A04206D1FFF7C8FF85F31188BFF36F8F1E
:105B500038BD00211B7C11600A4AD35C002BF3D0B6
:105B60002046FFF79BFF0028EED0637BDB0602D1C7
:105B70002046FFF7D5FC2046E4E700BFD011002403
:105B8000F81100242A120024024B1868984208BF1A
:105B900000207047F0050024034B1B680BB9FEF78B
:105BA00065BE0020704700BF0012002430B570B100
:105BB0000B4B5B6898420AD0036843B1D3E90421D8
:105BC000D0E90445121941EB0501C3E90421D0E9EC
:105BD000003213605A600023C0E9003330BD00BFBB
:105BE000F0050024B3F1FF3F08BFB2F1FF3F2DE9FC
:105BF000F84F0446994615461F467AD08160EFF368
:105C00001188102383F31288BFF36F8FB9F1000F4F
:105C1000DFF8E4A020DBFFF7BFFF0135064649F1BE
:105C200000092D18DAE9002749EBE0734FF001096C
:105C3000C4E90453AD1843EB0707FFF7A5FFDFF8EE
:105C4000BCE00346DEF804A0EBB9C4E900EACAF8F8
:105C50000040CEF8044028E0DAE900126FF00103BA
:105C60005B1A4FF0FF3161EB02025B1B62EB090232
:105C7000012B4FF0000972F10001BCBF012300228B
:105C8000C0E90432D9E7D3E9041CD4E904208A42EC
:105C900070EB0C0B24DA891A5A686CEB0000C3E92C
:105CA0000410C4E9003214605C60FFF76DFF8442A9
:105CB0000ED1134B1B685BB9B9F1000F02D1FFF78E
:105CC0006BFF0646304602F0F3FD0021FEF750FD63
:105CD00088F31188BFF36F8F28463946BDE8F88FE7
:105CE000521A60EB0C009A45C4E90420ADD01B6841
:105CF000AAE700252F46EFE788080024F0050024D6
:105D0000001200242DE9F047EFF31185102383F3EF
:105D10001288BFF36F8FDFF8A4900026DFF8A08011
:105D20000027C9F80000FFF72FFFD9F80030D8E9A5
