:020000040800F2
:1000000000280024652A000889980008512A000861
:10001000512A0008512A0008512A00080000000057
:10002000000000000000000000000000252B000878
:10003000512A000800000000C52A0008516F00087E
:10004000A12C0008A12C0008A12C0008A12C00085C
:10005000A12C0008A12C0008A12C0008A12C00084C
:10006000A12C0008A12C0008A12C0008A12C00083C
:10007000A12C0008A12C0008A12C0008A12C00082C
:1002D00080F0004002E000BF81F0004142001FBFFB
:1002E0005FEA410392EA030F7FEA226C7FEA236C04
:1002F0006AD04FEA1262D2EB1363C1BFD2184140F9
:1003000048404140B8BF5B42192B88BF704710F08E
:10031000004F40F4000020F07F4018BF404211F031
:10032000004F41F4000121F07F4118BF494292EA99
:10033000030F3FD0A2F1010241FA03FC10EB0C00C5
:10034000C3F1200301FA03F100F0004302D5494252
:1003500060EB4000B0F5000F13D3B0F1807F06D3FF
:1003600040084FEA310102F10102FE2A51D2B1F1F7
:10037000004F40EBC25008BF20F0010040EA0300EC
:100380007047490040EB0000013A28BFB0F5000F6C
:10039000EDD2B0FA80FCACF1080CB2EB0C0200FA22
:1003A0000CF0AABF00EBC25052421843BCBFD04071
:1003B0001843704792F0000F81F4000106BF80F4EB
:1003C00000000132013BB5E74FEA41037FEA226CAE
:1003D00018BF7FEA236C21D092EA030F04D092F079
:1003E000000F08BF0846704790EA010F1CBF0020AD
:1003F000704712F07F4F04D1400028BF40F000400A
:10040000704712F100723CBF00F50000704700F029
:10041000004343F0FE4040F4000070477FEA226250
:1004200016BF08467FEA23630146420206BF5FEA21
:10043000412390EA010F40F4800070474FF0000321
:1004400004E000BF10F0004348BF40425FEA000CE8
:1004500008BF704743F0964301464FF000001CE090
:1004600050EA010208BF70474FF000030AE000BFE6
:1004700050EA010208BF704711F0004302D5404224
:1004800061EB41015FEA010C02BF84460146002096
:1004900043F0B64308BFA3F18053A3F50003BCFAB1
:1004A0008CF2083AA3EBC25310DB01FA02FC63445E
:1004B00000FA02FCC2F12002BCF1004F20FA02F265
:1004C00043EB020008BF20F00100704702F1200258
:1004D00001FA02FCC2F1200250EA4C0021FA02F2B9
:1004E00043EB020008BF20EADC7070474FF0FF0CBE
:1004F0001CEAD0521EBF1CEAD15392EA0C0F93EAB9
:100500000C0F6FD01A4480EA010C400218BF5FEA5A
:1005100041211ED04FF0006343EA501043EA5111CD
:10052000A0FB01310CF00040B1F5000F3EBF4900C7
:1005300041EAD3715B0040EA010062F17F02FD2ACB
:100540001DD8B3F1004F40EBC25008BF20F00100AE
:10055000704790F0000F0CF0004C08BF49024CEAC5
:10056000502040EA51207F3AC2BFD2F1FF0340EA57
:10057000C250704740F400004FF00003013A5DDCC8
:1005800012F1190FDCBF00F000407047C2F1000209
:10059000410021FA02F1C2F1200200FA02FC5FEAF6
:1005A000310040F1000053EA4C0308BF20EADC7040
:1005B000704792F0000F00F0004C02BF400010F4B2
:1005C000000F013AF9D040EA0C0093F0000F01F05F
:1005D000004C02BF490011F4000F013BF9D041EA81
:1005E0000C018FE70CEAD15392EA0C0F18BF93EA83
:1005F0000C0F0AD030F0004C18BF31F0004CD8D1AD
:1006000080EA010000F00040704790F0000F17BF33
:1006100090F0004F084691F0000F91F0004F14D079
:1006200092EA0C0F01D142020FD193EA0C0F03D1D1
:100630004B0218BF084608D180EA010000F00040D4
:1006400040F0FE4040F40000704740F0FE4040F4AF
:10065000400070474FF0FF0C1CEAD0521EBF1CEA4E
:10066000D15392EA0C0F93EA0C0F69D0A2EB03026C
:1006700080EA010C49024FEA402037D04FF0805306
:1006800043EA111143EA10130CF000408B4238BFCB
:100690005B0042F17D024FF4000C8B4224BF5B1AD9
:1006A00040EA0C00B3EB510F24BFA3EB510340EA27
:1006B0005C00B3EB910F24BFA3EB910340EA9C00D5
:1006C000B3EBD10F24BFA3EBD10340EADC001B0145
:1006D00018BF5FEA1C1CE0D1FD2A3FF650AF8B42E9
:1006E00040EBC25008BF20F0010070470CF0004CF6
:1006F0004CEA50207F32C2BFD2F1FF0340EAC25021
:10070000704740F400004FF00003013A37E792F0E1
:10071000000F00F0004C02BF400010F4000F013A3F
:10072000F9D040EA0C0093F0000F01F0004C02BF3A
:10073000490011F4000F013BF9D041EA0C0195E7A3
:100740000CEAD15392EA0C0F08D142027FF47DAF3C
:1007500093EA0C0F7FF470AF084676E793EA0C0F2C
:1007600004D14B023FF44CAF08466EE730F0004C2A
:1007700018BF31F0004CCAD130F000427FF45CAFBA
:1007800031F000437FF43CAF5FE700BF4FF0FF3C28
:1007900006E000BF4FF0010C02E000BF4FF0010C7B
:1007A0004DF804CD4FEA40024FEA41037FEA226C44
:1007B00018BF7FEA236C11D001B052EA530C18BF66
:1007C00090EA010F58BFB2EB030088BFC81738BFCB
:1007D0006FEAE17018BF40F0010070477FEA226CB9
:1007E00002D15FEA402C05D17FEA236CE4D15FEAB5
:1007F000412CE1D05DF8040B704700BF84460846E9
:100800006146FFE70FB5FFF7C9FF002848BF10F1A9
:10081000000F0FBD4DF808EDFFF7F4FF0CBF0120EE
:1008200000205DF808FB00BF4DF808EDFFF7EAFF78
:1008300034BF012000205DF808FB00BF4DF808ED33
:10084000FFF7E0FF94BF012000205DF808FB00BF28
:100850004DF808EDFFF7D2FF94BF012000205DF8AE
:1008600008FB00BF4DF808EDFFF7C8FF34BF0120BB
:1008700000205DF808FB00BF4FEA4002B2F1FE4FD6
:100880000FD34FF09E03B3EB12620DD94FEA002352
:1008900043F0004310F0004F23FA02F018BF40422B
:1008A00070474FF00000704712F1610F01D1420212
:1008B00005D110F0004008BF6FF0004070474FF0C6
:1008C000000070477BB972B90029BEBF00204FF00D
:1008D000004106E008BF00281CBF6FF000414FF048
:1008E000FF3000F057B8ADF1080C6DE904CE0029D7
:1008F00009DB002B1ADB00F057F8DDF804E0DDE936
:10090000022304B07047404261EB4101002B1BDB26
:1009100000F04AF8DDF804E0DDE9022304B04042CB
:1009200061EB4101524263EB43037047524263EB78
:10093000430300F039F8DDF804E0DDE9022304B0F8
:10094000404261EB41017047524263EB430300F0C8
:100950002BF8DDF804E0DDE9022304B0524263EB3A
:100960004303704753B94AB9002908BF00281CBF88
:100970004FF0FF314FF0FF3000F00CB8ADF1080C34
:100980006DE904CE00F010F8DDF804E0DDE90223A3
:1009900004B07047704700BF034613F8012B002ACC
:1009A000FBD1181A013870472DE9F04786468C466E
:1009B0000846089E154674461946002B40F0C28032
:1009C0008542B2FA82F245D94AB1C2F1200300FA57
:1009D00002FC2EFA03F3954043EA0C0C94404FEAD4
:1009E000154EA8B2BCFBFEF8230C0EFB18CC08FB7E
:1009F00000F943EA0C43994528D9EB1808F1FF3771
:100A000004D2994502D9A8F102072B44A3EB0903AC
:100A1000A4B2B3FBFEFC0EFB1C330CFB00F044EA5B
:100A20000344A04214D92C190CF1FF3304D2A04284
:100A300002D9ACF102032C44241A43EA07401EB148
:100A4000D440002334607360BDE8F0874746DDE79B
:100A50006346F1E792BB431B01214FEA154EAFB24B
:100A6000B3FBFEFC200C0EFB1C330CFB07F840EA2A
:100A70000343984562D9EB180CF1FF3004D2984536
:100A800002D9ACF102002B44A3EB0803A4B2B3FBE0
:100A9000FEFC0EFB1C330CFB07F744EA0344A742A1
:100AA0004ED92C190CF1FF3304D2A74202D9ACF174
:100AB00002032C44E41B43EA0040C0E7C2F12003D8
:100AC00020FA03F1954090402EFA03F303434FEAD6
:100AD000154EAFB2B1FBFEFC0EFB1C10190C0CFB4B
:100AE00007F841EA0041884504FA02F422D969185E
:100AF0000CF1FF3004D2884502D9ACF10200294440
:100B0000A1EB08019BB2B1FBFEFC0EFB1C110CFB20
:100B100007F743EA01439F420ED9EB180CF1FF316E
:100B200004D29F4202D9ACF102012B44DB1B41EA03
:100B3000004192E76046E3E76146F7E76046A3E7D6
:100B40006346B7E7834206D916B9002108467BE71A
:100B5000C6E900E0F9E7B3FA83F78FB9834201D31E
:100B6000724508D8BEEB020460EB030301209C46EB
:100B70001EB9002168E73846FAE7C6E9004CF8E7F5
:100B8000C7F1200CBB4022FA0CF41C432EFA0CF1E6
:100B900020FA0CF3B84001434FEA14490EFA07F566
:100BA000B3FBF9F81FFA84FE09FB18300B0C08FBA5
:100BB0000EFA43EA00439A4502FA07F240D9E318D5
:100BC00008F1FF3004D29A4502D9A8F1020023446B
:100BD000A3EB0A0389B2B3FBF9F809FB183308FB4E
:100BE0000EFE41EA03418E452CD9611808F1FF330E
:100BF00004D28E4502D9A8F10203214443EA004001
:100C0000A0FB0298A1EB0E014145CE46434602D31C
:100C100006D14D4504D2B9EB020E68EB040301384E
:100C2000002EA6D0B5EB0E0261EB030101FA0CFC1D
:100C300022FA07F34CEA0303F940C6E9003198E7CA
:100C40004046C5E74346D9E7032937B5044615466C
:100C50003DD83AB3072A3AD15A681D68D1171346CE
:100C60001F48C5FB0031012B71F1000212DB00F5BA
:100C70006E1000F65D70181817A3D3E9002341F138
:100C80000001FFF71FFE0146204603B0BDE83040DB
:100C900004F034BE134818180FA3D3E9002361F100
:100CA0000001EEE759684FF47A72188891FBF2F16F
:100CB00089B205F081F8042807DDC0B20F232A4667
:100CC00040210090204609F099FD03B030BD6FF03F
:100CD0008500FAE7AFF300803AA39500000000001A
:100CE00040420F00632EB5FF0439032938B504468E
:100CF00002D96FF0850038BD3AB3072AF9D15A6896
:100D0000B4251968D0171E4BC1FB0320A2FB053187
:100D1000012A05FB001170F100000EDB19481818BC
:100D200015A3D3E9002341F10001FFF7CBFD81B208
:100D30002046BDE8384004F093BF134818180EA3AE
:100D4000D3E9002361F10001EFE759684FF47A72AB
:100D5000188891FBF2F189B205F02EF80028CADB61
:100D60000728C6DCC2B210212046BDE8384009F091
:100D7000CABD00BFAFF30080D8EF2F000000000015
:100D800040420F00ECF717001408E8FF10B506F01A
:100D9000ABF90346034A03210348BDE8104008F0BD
:100DA000DBBC00BFBECA000898BF00082DE9F043B5
:100DB00085B000AF694C20460AF08FF8054608BBA5
:100DC00023686C4688B07B606A46654902F114006E
:100DD00008F058F802F11800796808F053F84FF459
:100DE000007393835F4BFB6042F8103F4FF4E25176
:100DF0002B465D4800F0D8FF00201437A546BD46BD
:100E0000BDE8F083D4F810800F21A6682046D8F8FA
:100E10000030564A43F40043C8F80030336898471E
:100E2000054640B323686C468AB07B606A465049E9
:100E300002F1140008F026F802F1180007F10C0185
:100E4000FD6008F01CF802F11C00796808F01AF83F
:100E50000F2302F1200007F10C01FB6008F00FF8EE
:100E600040F201339384434BFB6042F8103F002370
:100E70004FF43151BDE7B569B5B1D8F800304FF046
:100E8000A0720F21204613F4004F14BF4FF00073DF
:100E90004FF08063A847054648B123686C468AB086
:100EA0007B606A463449C3E76FF05705F5E733497D
:100EB000334B4B604FF400438B60F36913B1012255
:100EC0002046984723686D468AB07B606A462D4964
:100ED00002F1140007F0D6FF02F11800796807F05C
:100EE000D1FF0F2302F11C0007F10C01FB6007F09A
:100EF000C6FF4FF400731384234BFB6042F8103F8E
:100F000000234FF41351184800F04EFFAD46134E26
:100F100003211E4DDFF850901D4A134808F013FCC2
:100F200023697B60A36807F10C0130465B68984732
:100F3000031E0DD17A681168FA684A4012F4004F16
:100F400018BF012303212A46484608F005FC00E0AB
:100F5000F8DA00210A200AF0CAF8E1E7D0B6000862
:100F6000D4CA00080300000198BF00082100010056
:100F7000FACA00080500000123CB0008A80D0024D0
:100F80008D0D000859CB00080400000187CB000834
:100F900075CB00082DE9F04F91B0840705460E4649
:100FA000009302F00403DDF868800293C2F3C203E9
:100FB000039203F10103059340F0BA81041D30B19F
:100FC000072909D86FF01B0011B0BDE8F08F01F0C0
:100FD00007063444C6F10806009B4FF000094FF0A5
:100FE000040A591E4FF0FF334F46CB460193534638
:100FF000CDF810900DB1009A22600598002800F3FA
:10100000E8809848009A824203D397488242C0F011
:10101000E080039AA4EB050E92074FEA9E0000F1D0
:1010200003810F2F00F2B180002D00F0058107F140
:1010300040020DEB020C019A0CF8200C0CF8102C5D
:10104000049801300490E7E07A285DD84B280ED848
:10105000472859D829282DD8252852D054D82028B7
:101060007AD02338D0F1000B4BEB000B74E04C38F6
:101070002E2849D8DFE800F07048484848484848DA
:10108000484848484B484848484848484859484BC9
:101090004B595959704B6D487048184B1848488245
:1010A0007F4B48484B487F0000204FF0000B4FF02B
:1010B000040A38E02A380122C0B202FA00F010EA2D
:1010C0000E0F49D110F0625C2FD110EA020B43D011
:1010D0006046013C5444B4FBFAF40AFB04F4002DCE
:1010E00061D0A3EB050CA444B4453FF66BAF0028D8
:1010F00068D1042B47D158F8043B236004340423FF
:101100002AE0019A013A01924FF0000B24E011F815
:10111000010C6C2834D111F8023C00206C2B834662
:10112000C5D14FF0080A5346D3E708F10708073442
:1011300028F0070824F00704F8E802AB35B1069858
:101140002044B0423FF63EAFC4E900AB08344FF054
:10115000000B4FF0080A534611F8010F002878D011
:10116000BBF1000F7FF470AF2528F5D1019B4FF044
:10117000010B013301934FF0040AECE7584694E762
:1011800000208346A5E7082B02D06FF015001BE76F
:1011900008F1070828F00708F8E80223C4E900234B
:1011A00008340823D8E768B9042B02D108F10408F1
:1011B000A4E7082BE9D108F1070828F0070808F18F
:1011C0000808EDE7059A013A059258F8042B0092B9
:1011D00010E7039A900720D5A4EB050E4FF0010C01
:1011E0004FEA9E00BEF5007FCFD20F2FCDD8F5B1CC
:1011F00007F14002C0B20DEB020E019A0EF8200C6E
:101200000EF8102CBCF1000F3FF41AAF60F07F0015
:1012100009F101090EF8200C0137C5F10802043468
:101220004FF6DA7E069297E74FF0000CDAE7BCF152
:10123000000F01D00136EFE7029802360028EBD10B
:101240000098CDE90631FFF7A7FB0644DDE906313A
:10125000E2E7631BB3F5806F97D23DB9A6F10804AE
:10126000E018B1E6A8B30008C0FC00089B08029A89
:1012700028602B709DF81030C2B1EB7085F8029099
:10128000B9F1000F05D008A80022C5F1010C974262
:101290000ED1C5F101030DF120084FF0000A0DF148
:1012A000300B0193574512D1601B8DE66B70E5E75B
:1012B00010F8013B190608D50CEB040E03F07F0370
:1012C000B6453FF67FAE04F8013B0132DFE7B9F1E6
:1012D000000F03D098F90020002A17DB029BD3B13E
:1012E0001AF80B2004F8012B0022019B1819104456
:1012F000B0423FF667AE98F80000009904F8010B81
:101300002046039209F0C4FF039A14440AF1010A2B
:1013100008F10108C6E798F8002055F8223000933C
:10132000029B009845F82230FFF736FB421CDCE7B1
:101330006FF00D0048E600BF2DE9F04F97B004466E
:10134000894600AF90F802A0D7F880B03B62CBF39B
:10135000C003FA62BB6141B9457800780AEB8000AE
:1013600020444D4517D8A0EB0409E378FB61BAF19E
:10137000000F02D01BF0010F16D1FB6953BBFB6AB3
:101380001BB13A6A4946204698474D4628465C3785
:10139000BD46BDE8F08F461C09F101093046FFF754
:1013A000FBFA01303044DCE72378626899007A6206
:1013B000FA6A796104EB8301002A40F000814D460E
:1013C0000E4601EB0A094FF000084E454CD101EBE7
:1013D0000A0610E01BF0020FD1D023789A0004EB2C
:1013E00083017A6162687A62FA6A002A77D14D468F
:1013F00001EB0A0690461BF0050F0CBF02230123E8
:10140000FB62FB6906EB430A0BF00203BB62564525
:10141000BCD016F8021B16F8013C54F82390994BE7
:10142000994502D3984B994536D3BB69002B40D0E0
:10143000786A07F041FE00283BD0E9468AB06A4648
:10144000924B53617B6AC2E906314FF400731384F7
:101450008F4B42F8103F00234FF412518D48023D4C
:1014600000F0A2FCCD46D2E716F8013BF96254F831
:101470002300FFF791FAD7F884300130F96A4BB1B5
:10148000D7F8883098453EBFD7F8843023F8180045
:1014900008F10108054498E7BB6923B1786A07F0B1
:1014A0000BFE0028C9D11BF0010F05D1FB6AED1A14
:1014B000ADE7BB6A002BAAD04846FFF76DFAD7F814
:1014C000843053B1D7F8883098453FBF431CD7F8D4
:1014D000842022F8183008F10108054497E7BAF192
:1014E000000F72D01BF0040672D0D046002607F120
:1014F000480052463B61B96209F0CAFEB96A3B69CD
:1015000001EB0A02F969BA62FA695200FA60BA6A32
:1015100002EB41023A610BF00202BA603A69B96A21
:101520008A4257D11BF0020F62780CBF4FEA580174
:1015300000217A621BF0010F3244D2B240F09F804A
:101540001BF0040F14BF40460020BB616270A07006
:101550002046E1703A6A7969FB6A9847051EFFF6F2
:1015600015AFBB6941463A6A07F1480023707B6AB0
:1015700084F802A06370FB69E370FB6A9847B0F1DE
:101580000008C0F2BB807B69A9EB0A013A6AC91A5C
:10159000FB68C91AD7E90A0398470028C0F2B0804F
:1015A000A8444FF0000B07F1380A08EB0005B345DB
:1015B00072D300213A6AFB6A08469847E6E6564627
:1015C0004FF0000807F1380093E75646D04697E7FA
:1015D000B04695E7BA6A12F8021B12F8015CBA62CB
:1015E00054F82500274A904202D3274A90421ED33E
:1015F000BA6932B1786A7B6007F05EFD7B680028CB
:101600008CD1BA6802BB08F1280207F1300C08F14E
:10161000010008F10208944407F158025FFA88F8C3
:1016200052FA80F00CF8101C00F8105C76E7BA69EA
:101630003AB1786A7B6007F03FFD7B6800287FF451
:101640006DAF1BF0010F09D006F1280207F1300041
:10165000711C161806F8205CCEB25FE71BF0040F71
:101660003FF45CAF08F1280207F1300008F10101F6
:1016700002EB000808F8105C5FFA81F84EE70020E2
:1016800063E700BFA8B30008C0FC0008A2CB0008B5
:1016900004000001B8BF00081BF80A3054F823907A
:1016A00087F83730D7F884302BB3D7F888309B458C
:1016B00021D2D7F8843033F81B803A6A012107F130
:1016C0003700FB6A984700281ADB0544B8F1000F81
:1016D00006D14846FFF760F900F101081FFA88F8C3
:1016E0003A6A41464846FB6A9847002808DB0544A9
:1016F0000BF1010B5BE74FF00008DEE7454645E6DE
:10170000054643E680B505460E461746984606F060
:10171000CDFDDFF82090034609F03CFE044642462A
:1017200049F8003039463046A84754F8090001F01E
:10173000B3F900BF080000000C4B82B00020D3F8C2
:10174000D82042F00102C3F8D820D3F8D83003F0F3
:1017500001030193019B064B5A6842F002025A6052
:101760005A6842F001025A6002B0704700440258C1
:101770000010005C38B54568154C204609F0ADFBFB
:1017800040B96FF01204134A0121134807F0DBFF40
:10179000204638BDA3681B685BB1204629469847A0
:1017A000041E09DA0D4A234601210B4807F0D4FF35
:1017B000EEE76FF05704F5E700F014F8084B9A686D
:1017C00042F001029A609A68D207FCD50024DFE754
:1017D000F0B4000856CC000820C0000875CC000802
:1017E00000480258EFF31180102383F31288BFF3EF
:1017F0006F8F094B1A683AB9084A116841F4807131
:1018000011601168C905FCD51A6801321A6080F3AD
:101810001188BFF36F8F7047B40D00240048025841
:1018200008B501F0ADFA01F04DFA0C4B0C4A1A6004
:101830000C4AD36823F0070343F00203D3600A4B3A
:101840001A6841F20303B3EB124F06D1074AD2F8EC
:10185000083143F00103C2F8083108BDD405002463
:101860000090D003004802580010005C0080005136
:101870002DE9F047044607464FF00109DFF8508094
:1018800014B93846BDE8F08794FAA4F5B5FA85F5A1
:1018900009FA05F32E0108EB05156FEA030A24EA9D
:1018A00003042B7B002BEBD058F806301B694BB997
:1018B00046440422284607EA0A077368196807F0B5
:1018C000D2FEDDE7284698470028D9D1F0E700BFCF
:1018D00040C0000830B5002289B00F490F4809F018
:1018E000A5FC0022002300240D4D0E49284600943B
:1018F000CDE906230E234FF44072CDE90334CDE940
:101900000144094B06F012FA0849284609F059FB30
:10191000204609B030BD00BF31190008200B00245B
:1019200098060024001700244D1C0008E9CC00088C
:10193000014806F00DB800BF880600242DE9F047E5
:10194000804620480F4607F066FE0646002832D043
:1019500000252846BDE8F087237B83B12368DB6838
:101960000BB120469847636883F8069023681B698B
:10197000CBB9636804222046196807F074FE01366B
:1019800010345445E8D3B8F1000FE2D0002DDFD079
:101990002846FFF76DFF0546002FF7D00021642091
:1019A00009F0A5FBF2E7204698470028E1D009FAA4
:1019B00006F31D43E3E7044C0546DFF810A04FF0A3
:1019C0000109DEE7C80D002440C0000850C000082F
:1019D000014B53F820007047B8C0000808B5034613
:1019E00008462BB1044A136000F074FC002008BDC7
:1019F0006FF01500FBE700BFC004002410B5044CD5
:101A0000237813B9034805F0A3FF0123237010BD09
:101A1000BC1600248806002410B504460B4807F0C5
:101A2000FAFD5CB10A4BBFF35B8F53E8001F01392D
:101A300043E80012002AF8D1BFF35B8F054809F094
:101A400001FC0548BDE8104005F082BFC00D002430
:101A5000C40D0024200B0024880600240020064B1F
:101A6000BFF35B8F014653E8000F43E80012002AE2
:101A7000F9D1BFF35B8F7047C00D002470B5FFF73D
:101A8000EDFF084C0546084EB44200D370BD6368B4
:101A90005B792BB123685B6813B1294620469847D0
:101AA0001034F1E740C0000850C0000810B5044CE5
:101AB0000449204607F035FC034B1C6010BD00BFF5
:101AC00048060024A4C00008B80D002400230D4AD5
:101AD0004FF47A710C4810B513700C4A13600C4A1D
:101AE0001360FFF77BFFFFF7E1FF0A4B0A49184637
:101AF0008B4200D310BD1A1A5C68103312110132E8
:101B00002271F5E7BD16002431960008C00D0024AF
:101B1000C40D002440C0000850C000080146002247
:101B20000023014807F01EBC48060024014807F0C6
:101B3000B7BC00BF48060024024B0146186807F0F6
:101B400003BD00BFB80D0024014807F038BD00BF39
:101B500048060024264B70B51878002846D0FFF7B9
:101B6000E5FF054600283ED1224B234C1B68002B85
:101B700012DD09F059FB0A220023FEF7F3FED4E937
:101B80000032C01A40F2E93361EB0201984271F170
:101B9000000101D3FFF772FFD4E9003213F57A7325
:101BA00042F10002C4E90032BDE87040FFF7CCBF4B
:101BB00063685B7923B12368294620461B689847F0
:101BC0001034B442F4D32846FFF7B6FF0B4BBFF3F3
:101BD0005B8F53E8001F013943E80012002AF8D157
:101BE000BFF35B8FC0E7064C064EEAE770BD00BF4F
:101BF000BC160024C00D0024180B0024C40D0024C2
:101C000040C0000850C0000870B50D4D297861B97A
:101C10000C4C01200C4EFFF791FEB44206D3FFF7A7
:101C200099FF0028FBD101232B7070BD63685B799D
:101C30001BB1236820469B6898471034EDE700BF2E
:101C4000BD16002440C0000850C0000800212DE946
:101C5000F0470846FFF772FE044658B34FF4FA788F
:101C60004FF000091C4B09F095FB1C4A1B581360F0
:101C700033B11B4B1B68092B02DD1A4805F068FEC7
:101C80000025194FDFF85CA044B12046FFF7F0FDB6
:101C9000044618B94FF0FF384FF0FF39FFF75AFFED
:101CA000064628B9B5B942464B46504605F084FE73
:101CB0003546E9E74FF0FF384FF0FF39D2E72B68A0
:101CC0009B691BB100222846114698471035BD423A
:101CD000F5D3E8E7054DFAE708000000BC0D002445
:101CE000C40D00248806002450C0000840C000082D
:101CF00013B5184807F08FFC174B1B7873B1EFF33F
:101D00001184102383F31288BFF36F8FFFF722FF34
:101D100084F31188BFF36F8F02B010BD0F4B1B68A7
:101D2000002BF9D050B9002200230D48CDE9002343
:101D300042F21072002306F0B5FDEDE70928EBD161
:101D4000074809F07FFA074802B0BDE8104005F0E7
:101D5000FFBD00BFC40D0024BD160024BC0D00242F
:101D6000200B002488060024064B10B504461B688F
:101D700098472146A060044807F073FBBDE8104077
:101D8000FFF7B6BFC004002448060024044A054BF0
:101D90009B1AB1EBD30F34BF52F8310000207047CB
:101DA00088BF000840C000082DE9F04F8FB0C1F394
:101DB0004A280D46914604AF0C0DB8607B60B8F11F
:101DC000000F63D0002607F114034FF0040B4FF00F
:101DD0000A0AC7F80C8032467E624846C7E90766A1
:101DE000019307F11C03CDF808B0CDF800A0F96805
:101DF000FFF7A2FAB0F5006F03461CD36C468AB019
:101E0000D9F8041004AB26481A46C3E9050140F28C
:101E1000FF71D9614FF400711984224B42F8103FD1
:101E20004FF4125133462048FFF7BEFFA5462C372A
:101E3000BD46BDE8F08FC0F30A0804F117003B600F
:101E4000184468F3532520F007008008FFF766FE6A
:101E5000044690B13B6800F11001144A4846F9610C
:101E6000C7E9083607F11403CDF808B0CDE900A39F
:101E700007F11C03F968FFF75FFA68F353257B68E5
:101E8000B96820462A4607F00EFCD0E704F1170097
:101E900020F007008008FFF741FE0446EDE700BF91
:101EA000FECC000804000001E8BF00087996000895
:101EB0002DE9F04F87B00446934698460391DDE93B
:101EC0001279DDE9105ABFB13B465246102100207D
:101ED000CDF80090CDF81490FFF75CF8B0F5006FE6
:101EE00006460AD340F2FF73174A0221174807B08B
:101EF000BDE8F04F07F030BC3E4604F0070405F1A2
:101F000017000BF0070BE400304444EA8B1420F078
:101F1000070044EA4624800844EA0554FFF7FEFD22
:101F2000054640B13FB13B46524631461030CDF8F0
:101F30000090FFF72FF8434622460399284607B042
:101F4000BDE8F04F07F0AFBB3DCD0008E8BF00088B
:101F5000406820B1034BC01A40F3CF0070474FF0E8
:101F6000FF30704788BF00080EB403B503AB0146CD
:101F7000054853F8042B019301F090F802B05DF886
:101F800004EB03B0704700BFBB970008CA0605D436
:101F90008B064CBF02490349FFF7E6BF704700BFFD
:101FA00076CD000875CD00082DE9F04F89B09B462D
:101FB00004460D46149B90469DF84CA00693159B35
:101FC000179E0593169B0493BAF1000F00F09D80B5
:101FD00006F4807306F00209079307F042FB0246FD
:101FE00000283ED091492046FFF7BEFF0746B9F1D1
:101FF000000F08D016F0440F35D12A468C492046F0
:10200000FFF7B2FF074406F0010353B1894B2046A6
:10201000894953F82A20894B002A08BF1A46FFF73E
:10202000A3FF06F48073002B49D006F00803002BB1
:1020300063D1B8F1000F66D0424681492046FFF7D0
:1020400093FF0546069B3D44002B6DD1049B002B5E
:1020500073D1F30700F1E48031462046FFF796FF85
:10206000D8E00746C3E7774B18680028CAD0764BFC
:102070004FF47A794FF03C0C1B68B5FBF3F5B5FBD8
:10208000F0F100FB11554FF4616309FB05F5B1FB5D
:10209000F3F2B5FBF0FE03FB121100FB1E55B1FB82
:1020A000FCF309FB05F50CFB1311B5FBF0F50091F2
:1020B00020466649CDE901E5FFF756FFA2E706F0A5
:1020C0000803EBB1624B2046624953F82A20FFF720
:1020D0004BFF0546B8F1000F05D04246584920464F
:1020E000FFF742FF0544BBF1000FABD05A465A49F7
:1020F0002046FFF739FF0544A4E74FF0000BE1E766
:1021000006F00805E6E745469CE7BBF1010F069B94
:1021100006D1002B64D1049B002B7BD000250CE062
:10212000002BF8D04D485CE04D48069B22464D49B7
:1021300006F091FF049B002B68D0DFF82C81DFF8BC
:102140002C91049F4FF0000B31462046102F28BFE2
:102150001027FFF71BFF5D4545DC059B4FF0010B8A
:10216000494620461A78FFF7FFFE1BF0070F03D100
:1021700041462046FFF7F8FE5F453BD9059B49469F
:10218000204613F80B20FFF7EFFE0BF1010BBBF11C
:10219000100FEAD14FF0000B35492046FFF7E4FE5F
:1021A0005A46059B20469A5CA2F120015F293149DD
:1021B00028BF2E22FFF7D8FE0BF1010BBBF1100F49
:1021C0001DD01BF0070F03D141462046FFF7CCFE80
:1021D0005F455A46E5D841462046FFF7C5FEEBE786
:1021E0001F485546A1E7414620460BF1010BFFF77A
:1021F000BBFEB0E720492046FFF7B6FEC5E7059BCA
:102200003B440593049BDB1B04939AD1BAF1000F66
:102210007FF41FAF204609B0BDE8F04F07F0C0BA09
:10222000064A20460449FFF79FFE15E77DCD0008CA
:1022300081CD0008C8C000082DD9000878CD00085D
:10224000A6CD0008D00D0024CC0D00248ACD0008B6
:10225000DCC00008AACD0008B0CD0008F197000846
:10226000BB9700089D300008BDCD0008B5CD000823
:10227000BFCD0008C1CD0008BBCD000842F20F73EE
:10228000114A8B4273B5044628BF0B4605680521E9
:10229000684606F06DFB636806460B2228465B68BD
:1022A0000A4907F06FFA63683246694628465B6858
:1022B00007F068FA63681B2205495B68284607F047
:1022C00061FA02B070BD00BF73D90008E0CD00080C
:1022D000C4CD000800210123064A904206D8064AD0
:1022E00001B901231360054B1860704740080121B4
:1022F0005B00F2E740420F00CC0D0024D00D00241B
:10230000014B01221A707047BE160024014B0020B9
:1023100019607047E80D00240148FFF7AFBF00BF08
:102320000CC10008064B10B50C461868FFF750FBAF
:102330000F22034621460348BDE81040184700BF5E
:10234000E80D00240CC10008F8B5094D0122094B25
:10235000094E1A70D5E900470CB92C60F8BD21462A
:1023600030463A4600F01EF8241A0644F4E700BF4F
:10237000DC0D0024BF160024C016002410B9074B42
:1023800018707047064B1B781BB141F2883008F07B
:102390007DBD3220002108F0AABE00BFBE16002479
:1023A000BF1600242DE9F04780460E460424DFF8CE
:1023B00074901D4F99F80050A5B908F05AFD824657
:1023C00032462846414604F0F1FF0546504608F0E3
:1023D00058FDE5B101233B7099F8003073B93046E0
:1023E000BDE8F08732464146002004F0DFFF054695
:1023F000EFE7651E2046FFF7C1FF2C46002005F0E1
:1024000019F80028EBD03B78002BF2D1E7E73B78B6
:10241000002BE4D0013C2046FFF7B0FF3B78002BB7
:10242000C8D1DCE7BF160024BE160024014B0360B0
:10243000012070471CC1000806480021064A08B563
:10244000121A07F019FA0548054A0021121A07F076
:1024500013FA08BD98060024F0160024000000209E
:10246000000000200C480D4A0D49121A08B507F06B
:1024700005FA0C480C4A0D49121A07F0FFF90C4AEC
:102480000C490D4807F0FAF90C480D4A0D49121A8B
:10249000BDE8084007F0F2B9C00400249806002403
:1024A000C8FC0008B8040024C0040024C0FC0008D4
:1024B00000000000A0FE0008000000000000002056
:1024C00000000020A0FE00082DE9F047064600AFFE
:1024D0000C46002936D0E9468AB0A3686D46D1E99A
:1024E000001221484FF0050AA846C5E90501C5E9D3
:1024F000072348F810AF002342464FF421511B48F0
:10250000FFF752FCCD466369AD46D4E90312184883
:10251000C5F810A0C5E90501C5E907230023424617
:102520004FF421511148FFF73FFCCD46E369114AB2
:1025300001210E4807F010F9A3690F4A01210B4849
:1025400007F00AF9012E07D1EFF305830B4A103B80
:102550003146064807F000F92146304604F09AFF5C
:10256000BD46BDE8F08700BF2CCE000800C00008C3
:102570005BCE00088ACE000899CE0008C7CE0008BE
:1025800030BFFFF7FDBF00BF2DE9F0410B4E054600
:10259000DFF82C80324606EB0807CC1B09492046A1
:1025A00008F076FEA019083C4246002108F07EFEA5
:1025B00007F108002C67BDE8F08100BF00000000B3
:1025C0000400000050C00008054B5A699B689A42FD
:1025D00004D0044A536843F080535360704700BFEF
:1025E0008016002400ED00E070B5294C06460D462B
:1025F0002848294907F04FF9A36AD9043CD5254852
:10260000264907F048F91720A36A1A0504D521487E
:10261000234907F040F918201D4CA36A9B0512D5E9
:102620001C48204907F037F9A36BA26A100409D5AA
:102630001D4A0121174807F08FF81EB1A36A23F441
:102640000043A3621920124CA36A590504D511480E
:10265000164907F020F91A20A36ADA050ED50D48AD
:10266000134907F018F91B20094A936A43F47F4382
:10267000936200232B7070BD1620C5E7A36A9B04EC
:10268000F2D504480B4907F006F91C20ECE700BF1F
:1026900000ED00E000C00008DACE0008F0CE00082F
:1026A00001CF000814CF00082DCF000842CF00084A
:1026B0005DCF000875CF000810B5204C2049214897
:1026C00007F0E9F8A36A990136D51E481E4907F0BC
:1026D000E2F81E20A36ADA0104D51A481B4907F064
:1026E000DAF81F20154CA36A1B0304D515481849B6
:1026F00007F0D1F82120A36A590304D511481549E0
:1027000007F0C9F822200D4CA36A9A0304D50D489E
:10271000114907F0C0F82320A36ADB0304D5094858
:102720000E4907F0B8F82420044A936A6FEA03437D
:102730006FEA1343936210BD1D20CBE700ED00E06C
:10274000A4CF000800C00008BCCF0008CFCF00080D
:10275000E9CF000807D000082CD0000846D00008B8
:102760002DE9F843364D80468946364836491746A6
:1027700007F091F8AB6ADE0627D5112433493148BA
:1027800007F089F8AB6A1D0704D5122430492D489B
:1027900007F081F82A4DAB6A980718D52D492948CA
:1027A00007F079F86E6BAB6A190646D52A4A3346AC
:1027B0000121244806F0D0FFB9F1000F03D0AB6A25
:1027C00023F08003AB62132403E01024DAE76FF0F8
:1027D00015061B4DAB6ADA0704D514241F491948A6
:1027E00007F059F8AB6A9B0604D515241C49154817
:1027F00007F051F8124B9A6AD50602D49A6A9007EC
:102800000AD55B68190507D54146304600F002FA43
:1028100010B180F309880224094B9A6A920603D505
:102820005A6A22F400525A629A6A204642F0FF0223
:102830009A6200233B70BDE8F8836FF01506C2E78B
:1028400000ED00E000C0000871D0000887D000084B
:1028500001CF0008BAD00008D2D00008E8D00008A4
:1028600075CF00082DE9F041664B8AB0044600267A
:10287000D3F8048000AFC8F3080586F31188BFF3CE
:102880006F8F02F07F43B3F17F4F07D102F00C034B
:10289000082B12D15C495D4806F0FDFF0026344646
:1028A0000023FB71EB1E092B00F28B80DFE803F0A5
:1028B0000A81847D89898989898710074CBF0C46E4
:1028C0000126EDE75249514806F0E5FF4D4D002342
:1028D000FB71EB6A9A0705D54E494C4806F0DBFFC1
:1028E000002332E0EB6A002B01DA4B49F5E7EB6A93
:1028F0005B00F5D54949454806F0CDFF6B69A269F3
:1029000043F480736B61BFF34F8FBFF36F8F6B69BD
:1029100032F8022C23F480736B61BFF34F8FBFF347
:102920006F8F4DF602739A4208D0AB6ADBB27BB36D
:10293000FA1D01212046FFF713FF38E02368384ACB
:102940000121324806F008FF2368FA79E2B907F15D
:10295000080504F1200C2068083454F8041C2A46A9
:10296000644503C21546F6D17A6A002E45D0C2F3FB
:10297000080121B96FEA52226FEA42227A6207F116
:1029800008011846FFF7A0FD2837BD46BDE8F081D5
:10299000AB6A13F47F4F04D0F91D0120FFF724FE2A
:1029A00005E0AB6AB3F5803F9AD3FFF785FE034697
:1029B000CBE7FA1D0021BDE7F91D0020EEE719491C
:1029C0008BE718F4F87F184AE8468AB0174B18BF0F
:1029D00013466A461649103DC2E905134FF40073C9
:1029E000D5611384134B42F8103F00234FF411516B
:1029F0000648FFF7D9F9C54672E722F4FF7222F0C4
:102A00000102BBE700ED00E035D1000800C000087E
:102A100060D1000877D1000898D10008A6D100083D
:102A2000C5D10008E1D100081CD1000807D1000879
:102A300005D2000804000001044B5A6942F010025C
:102A40005A615A6922F008025A61704700ED00E0AD
:102A5000EFF30880EFF3098101B57246FFF702FF3B
:102A600001BD00BF0A4880F30888102080F3118858
:102A700008484FF40461401880F30988EFF314808C
:102A80000221084380F31488BFF36F8F00F08EF8A3
:102A900000280024401A0024084B9B6883420BD175
:102AA000EFF3058343B1064B5A6842F080525A60F7
:102AB0005A6A22F400425A6205F0FEBB80160024D6
:102AC00000ED00E014498A684FF030001044EFF345
:102AD000098C80E8F01F102080F31288BFF36F8FFD
:102AE0000E4F4FF000664A698A603E60106F0C4CD2
:102AF0002060506F0023536780F3118804B510469F
:102B000000F064F9BDE8044002F1300090E8F01FE5
:102B10008CF30988704700008016002404ED00E063
:102B2000EC0D00241EF0040F0CBFEFF30880EFF350
:102B30000980816911F8021C0229FFD001B5724693
:102B400006F09EFE01BD00BF00B2002807DB012396
:102B5000410900F01F00024A834042F821307047CB
:102B600000E100E000B2013100284FEA0111C9B2D2
:102B700006DB00F1604000F5614080F8001370470B
:102B800000F00F00014B1954704700BF14ED00E036
:102B9000044B054A23F07F039360BFF34F8FBFF3CD
:102BA0006F8F70470000000800ED00E008B5FFF7E8
:102BB000EFFF0C4AD2F8883023F47003C2F8883053
:102BC000EFF3148323F0040383F31488BFF36F8FB0
:102BD000FFF732FCFFF746FC00F056F806F07AFEED
:102BE00004F08AFD00ED00E042F8203C203A009B12
:102BF00007495360019B21F001019360029B9161A1
:102C0000D3604FF08073D361002302654367704740
:102C100005170008094A0346906870B113F1160FB2
:102C2000006E05D0A0F140029A4205D8834203D23B
:102C3000814228BF00207047002070478016002482
:102C400015460C4A0E4608B50B4B9060026F1A6091
:102C500000F0BCF82C4686F309880020034B984707
:102C60002046002100220023014C2047AD98000897
:102C70000517000880160024EC0D0024014B1022DB
:102C80001A61704700ED00E0002304481021C218CB
:102C90000133A32B82F80013F9D1704700E100E063
:102CA00008B5EFF30583064A103B02EBC30152F867
:102CB000330049688847BDE80840FFF785BC00BF7E
:102CC00010B90008154A70B5536913F4803323D145
:102CD000C2F88430BFF34F8FD2F8803043F6E074EF
:102CE000C3F3C900C3F34E335B0103EA0406014694
:102CF00046EA81750139C2F86052F9D2203B13F1DE
:102D0000200FF2D1BFF34F8F536943F480335361E7
:102D1000BFF34F8FBFF36F8F70BD00BF00ED00E0BA
:102D2000002910DD00F01F030B44BFF34F8F07494C
:102D30000344C1F8680220301A1A002AF9DCBFF3F4
:102D40004F8FBFF36F8F0020704700BF00ED00E092
:102D5000002910DD00F01F030B44BFF34F8F07491C
:102D60000344C1F85C0220301A1A002AF9DCBFF3D0
:102D70004F8FBFF36F8F0020704700BF00ED00E062
:102D80000B4B5A6912F4003211D1BFF34F8FBFF3CE
:102D90006F8FC3F85022BFF34F8FBFF36F8F5A6905
:102DA00042F400325A61BFF34F8FBFF36F8F704709
:102DB00000ED00E0024B0121024A034800F08AB80E
:102DC00000000524000000242CC10008026E4021F0
:102DD000044B403A18461A60034AC3E90112012124
:102DE00000F082B8F00D002400000B1508B5034672
:102DF0001048D0F89020C2F30722013A934207D935
:102E00000D4801210D4A06F0A7FC6FF0150008BD22
:102E1000C0F898300A6822F01F021A4342F01002EC
:102E2000C0F89C208A6842F00102C0F8A020184631
:102E3000EDE700BF00ED00E0F8BF00081CD200087D
:102E4000F0B50E4685B01F4604460025B5420DDAA2
:102E5000606810B397B1431E18420AD0104A2B463F
:102E60000121104806F078FC6FF01502104605B0FD
:102E7000F0BD1F28F2D921680B42EFD1236801A9C8
:102E8000019306F028FDA3680343D0B20393FFF734
:102E9000ADFF10F1160FE7D0421C01350C34D5E719
:102EA00042D20008F8BF0008044B0522C3F8942062
:102EB000BFF34F8FBFF36F8F704700BF00ED00E08F
:102EC000BFF35F8F024B0022C3F89420704700BF0E
:102ED00000ED00E010B5034C01232278FFF7B0FFAE
:102EE000207010BDD01600240B4A08B500231278BC
:102EF000FFF7A6FF10F1160F07D0084A0021D2F8FD
:102F00009030C3F30723984200DB08BDC2F8980055
:102F10000130C2F8A010F2E7D016002400ED00E066
:102F2000584859492DE9F043D0F8903085B00D68E4
:102F3000C3F307239D4200F2A180FFF7C1FF496858
:102F40000022954201F10C011AD1504C6846504FB5
:102F50002570FFF76BFA00250646DFF83881DFF8A9
:102F60003891AE421FD1237800204649D1F89020F5
:102F7000C2F3072293427BDB0020FFF795FF4CE072
:102F8000C0F8982051F80C3C23F01F031343013282
:102F900043F01003C0F89C3051F8043C43F00103A7
:102FA000C0F8A030CDE700984FEA051C00EB0511F2
:102FB000CB683B40B3F5000F44D00AD8B3F5001FEF
:102FC0002ED0B3F5800F34D0B3F5801F10D001356B
:102FD000C7E7B3F1807F3ED0B3F1007FF7D150F85F
:102FE0000C30886806F077FC4A6840F4802009E0DD
:102FF00050F80C30886806F06EFC40F088504A6843
:1030000040F43020039001A92078CDE90123FFF797
:10301000EDFE002828DA6FF0150005B0BDE8F0835A
:1030200050F80C30886806F056FC4A6840EA080000
:10303000E8E750F80C30886806F04DFC4A6840EA32
:103040000900DFE750F80C30886806F044FC4A6855
:1030500040F08270D6E750F80C30886806F03BFCF0
:103060004A6840F08870CDE7237801332370AEE7DB
:10307000C1F898300133C1F8A00077E74FF0FF3076
:10308000CBE700BF00ED00E078C00008D0160024B8
:103090000000F0FF0000081100000206F0B587B044
:1030A00007460E4614460021102268461D4608F0C9
:1030B000FDF802232A4621468DF802306846044B6B
:1030C000CDE90476019305F07DFC07B0F0BD00BFAB
:1030D000F79800080649074821F00701C1F110528E
:1030E00008B502F5A02205F05EFF002008BD00BF74
:1030F000872C0024FC0D0024044B03EB400000232C
:10310000013320F8022B9942FADC7047E4050024D1
:103110002DE9F041054600260F4F4FF00108F4B2AB
:103120006B78A34201D8BDE8F0812B781C4420467F
:1031300000F09EF868B1204600F0C0F857F834302F
:103140003BB107EBC40204F01F04516808FA04F015
:1031500098470136E3E700BF080E0024034680B11C
:10316000B0FA80F2C2F11F02D2B2074931F912005F
:103170004FF0B042D2F880100B43C2F88030FFF716
:10318000E3BCFF22F1E700BFE405002430B5B0B195
:10319000B0FA80F3C3F11F03DBB20B4850F83340A1
:1031A0008C4204D100EBC3056D68954205D044B94B
:1031B00040F8331000EBC3004260002030BDFF2315
:1031C000EBE76FF00F00F9E7080E002460B1B0FAEA
:1031D00080F3C3F11F03DBB2044A002142F833102D
:1031E00002EBC30251607047FF23F5E7080E00248D
:1031F00000F003020F23043292009340094A43EA8D
:10320000900000F00303023352F82320030C93FADA
:10321000A3F3B3FA83F302EA104003F01F03D8408C
:10322000704700BF0004005813B50E4C204607F04D
:1032300054FE40B90C4801210C4A06F084FA6FF0A4
:10324000120002B010BD0223F422CDE90023A368CE
:103250001B681BB1694620469847F2E76FF057009C
:10326000EFE700BFF0B40008D8BF000873D2000831
:1032700000F01F0201215F2801FA02F208B503469F
:1032800005D90C480C4A06F067FA002008BD1F2833
:103290004FF0B04106D8D1F888309A430CBF0120D6
:1032A0000020F3E73F2802D8D1F89830F5E7D1F8AD
:1032B000A830F2E7D8BF000892D2000800F01F0241
:1032C00001215F2801FA02F208B5034606D90B482E
:1032D0000B4A06F041FA6FF0150008BD1F284FF0A9
:1032E000B04103D8C1F888200020F6E73F2802D873
:1032F000C1F89820F8E7C1F8A820F5E7D8BF000882
:1033000092D200082DE9F04F0F4689B091461E4633
:10331000D0F808A06A4BD0F808809A4200F2CD801D
:10332000B8F83C40B8F83E3001341C44B8F840309E
:103330001C44002A00F0C180B6F57A7F80F0BD8081
:10334000836807A99B6A9847002840F0B3804EB96C
:103350005C4B994535D85C4B40F26B36994588BF3C
:103360004FF44876079B04FB09F4B3FBF4F4029393
:10337000BAF838309C4238BF1C466FF0004304FB5B
:1033800009FB0393B8F842309C421DDD0398FB888B
:10339000BA885B08934228BF13463B80BAF83020B6
:1033A000934204D9B8F83A209A4228BF1A466FF0DF
:1033B00000433A80984208BF6FF0850009B0BDE82D
:1033C000F08F40F2EE26CDE7029BB3FBFBF30193B7
:1033D000DDE901230BFB12335BBB01994FF47A75D6
:1033E000BDF804207143B8F83C30B8F83EE00593CE
:1033F0000EEB0300BAF834C0BAF8323080B2B1FB39
:10340000F5F1511ABAF8365089B20495A94213D988
:10341000B8F840508D4228BF0D46511E491B89B255
:1034200088420BD2151AB8F84020013DADB2AA422D
:103430000FD20134CB44A5E7049DEEE70CEB03006B
:1034400080B288422DD9121A013A95B2049AAA4242
:10345000EFD8B3EB500F4FEA500203D2059B9342D3
:1034600028BF1346C21A92B296451CD2A0EB0E0397
:1034700072469BB24FF47A7100FB01100199B0FBC8
:10348000F1F08642039934BF801B301A8142D0D9B3
:103490007B80BA80FD803C8100283FF478AF0390A8
:1034A000C7E70846D5E7944582BFA0EB0C03624608
:1034B0009BB2DFE76FF0040080E76FF015007DE757
:1034C00040420F0000350C0020A1070037B54368CB
:1034D0000D465B691B689847044630B1044A2B4689
:1034E00000900121034806F041F9204603B030BDA9
:1034F000DDD20008A8BF000837B543680D465B69F8
:103500005B689847044630B1044A2B46009001217D
:10351000034806F02BF9204603B030BD00D3000865
:10352000A8BF00082DE9F04F8BB0054617469B4613
:1035300043681022884606A80021D3F8189007F0A7
:10354000B5FE03AA39462846FFF7C0FFC0B9DFF829
:1035500034A1039E730613D0C6F3052604AA0823DC
:10356000284606EBC60108EBC10189B2019106F0BD
:103570009CFA0199024630B14349444806F0A9FA41
:103580000BB0BDE8F08F9DF81630C3F3030003F0D5
:103590000F028DF81C009DF81300840642BF9DF8B1
:1035A0001D4044F002048DF81D409C0642BF9DF86A
:1035B0001D4044F004048DF81D40DB0642BF9DF819
:1035C0001D3043F008038DF81D3004069DF81740A8
:1035D00048BF9DF81D3004F07F0444BF43F0100342
:1035E0008DF81D3043061FD5049BC3F31C030693BF
:1035F0009DF81D3043F001038DF81D301AF802309C
:10360000082B39D89DF81D20900713D493B10333AC
:10361000083108AA284603F4FE7389B206F045FA79
:10362000024638B11A49A8E7BDF81230C3F38A033D
:103630000693E3E79DF81D3022B2E400D9074CBFA2
:10364000D9F80830D9F804301C4453F83230626895
:1036500013B106A928469847324659462846FFF72F
:103660004BFF00288CD103AA39462846FFF72EFFCE
:1036700000283FF46EAF83E7064A0121034806F0B5
:1036800026FAE9E707D7000824D30008A8BF0008F6
:103690004BD3000870D300082DE9F34106690546B5
:1036A0004FF0FF324FF0FF331036304606F016FA77
:1036B00001AA18212846FFF709FF044648BB019AD2
:1036C0001821284622F010020192FFF715FF044648
:1036D000F8B903F009FD01AA074618212846FFF7AB
:1036E000F5FE0446A8B9DFF84C80019B1B0710D5F6
:1036F00003F0FAFCC01B404512D9019A1821284654
:1037000042F010020192FFF7F7FE041E08BF6FF0AF
:103710000A04304606F0E4F9204602B0BDE8F08124
:1037200001AA18212846FFF7D1FE0028DDD0044663
:10373000EFE700BFC03B470370B5046905460E467E
:1037400023792BBB10344FF0FF324FF0FF3320466C
:1037500006F0C4F9F38832882846013B3189013AE2
:1037600003F07F03013943EA4263B288013A12024F
:1037700002F47F421343084A02EA01421C211A4321
:10378000FFF7BAFE0546204606F0AAF9284670BDA6
:103790006FF00F05FAE700BF0000FF012DE9F74FBA
:1037A000D0F810800546D0F804A098F80430002B1B
:1037B0006CD1DAF8000078B18368D8F800101B6883
:1037C0009847044640B102463249334806F081F931
:1037D000204603B0BDE8F08F2E694FF0FF324FF066
:1037E000FF331036304606F079F901AA1821284631
:1037F000FFF76CFE044678B1304606F071F92648B2
:103800002246264906F065F9DAF800000028DFD0E4
:1038100083685B689847DBE7019A1821284622F005
:1038200001020192FFF768FE04460028E4D107F088
:10383000FBFC01AA0746894628461821FFF746FEE9
:1038400004460028D8D140F2E93B019BDB0708D4AD
:10385000304606F045F9002CD1D1012388F8043018
:10386000B6E707F0E1FCC01B61EB0901584571F1B7
:10387000000108DA01AA18212846FFF727FE0028D0
:10388000E3D00446E4E76FF00A04E1E76FF0770461
:103890009EE700BF81D30008A8BF0008ABD3000893
:1038A00003292DE9F34180460D4606690AD96FF0D8
:1038B00085040A462748284906F00BF9204602B03D
:1038C000BDE8F0813379002B40D106F110074FF0AD
:1038D000FF324FF0FF33384606F000F96A461821F0
:1038E0004046FFF7F3FD044660BB01AA10214046A5
:1038F000FFF7ECFD044628BB009BEA074FF01801D8
:10390000404649BF43F0800323F080030093019BAE
:1039100054BF009343F01003009A48BF0193AB07D4
:103920004CBF42F0200222F020020092FFF7E4FD9B
:10393000044638B9019A10214046FFF7DDFD0446E0
:1039400000B93560384606F0CBF8B7E76FF00F04E2
:10395000B4E700BFA8BF0008CED300082DE9F341AB
:10396000502101AA04464568FFF7B0FD002835D173
:103970001C4F1D4EDFF87480019A12F099022DD071
:1039800050212046FFF7B8FD40BB019BD80705D565
:10399000A823A422698E2046FFF7C4FD019BD90607
:1039A00005D5B823B422A98E2046FFF7BBFD019BA5
:1039B0001A0704D53A460121304606F088F8019BE3
:1039C0001B0604D542460121304606F080F801AAC4
:1039D00050212046FFF77AFD0028CDD002B0BDE887
:1039E000F08100BFE7D30008A8BF0008FDD300089E
:1039F0002DE9F04F89B050210446076904AAFFF76A
:103A000065FD002840F09080644E049A324000F03A
:103A10008B8050212046FFF76FFD002840F0848006
:103A2000049B13F0607F36D0D4F8108005AA636839
:103A30000DF10F012046D3F81890D8E902AB06F03B
:103A4000A7F840BB9DF80F50BAF1000F04D05B46B9
:103A5000059A29462046D047032D1CD14FF0FF324E
:103A6000D4212046FFF748FD0546A0B9824608F15B
:103A7000240899F80C309D4259D306AA18212046F3
:103A8000FFF724FD38B9069A1821204622F00102DA
:103A90000692FFF731FD049BDD0421D5D4F80480A4
:103AA000D4F810A0D8F8189005AAF4212046FFF702
:103AB0000DFDA8B9059DA80612D0B8F83810C5F3B9
:103AC000042506AA082301EBC501204689B205F0AA
:103AD000ECFF0246002841D03149324805F0F9FF99
:103AE000049B190408D5304A01212E4805F0EFFF48
:103AF00007F1240003F02CFF049B9A0004D52B4A05
:103B00000121284805F0E3FF049B9B0304D5284AC4
:103B10000121244805F0DBFF04AA50212046FFF7CD
:103B2000D5FC00283FF471AF09B0BDE8F08FD9F89B
:103B30000030EA0053F835B0BBF1000F0CD043F869
:103B400035A06FF07101D9F80030204613445A684F
:103B5000D847404603F0FCFE01358AE72A46F821A3
:103B600020469DF81FB0FFF7C7FC05460028B7D1D7
:103B7000D9F800100FFA8BF001EBCB0351F830B0FD
:103B80005A6841F8305001920AF1240003F0E0FE37
:103B9000019A29462046D84786E700BF0090823B1D
:103BA00013D40008A8BF000839D400084ED4000878
:103BB00069D400082DE9F04F14460A790D46DFF864
:103BC000D0C10F2A114689B0D0F804A028BF0F2118
:103BD0000746DAF818901CF80180002195F805C016
:103BE0000669CCF3400EBCF1030FCDE906114FEA94
:103BF0008C1101F0400141EA4E118DF81B1002F0CA
:103C00000F0161F07F018DF81E100AD96FF0850B4E
:103C100062466049604805F05CFF584609B0BDE85F
:103C2000F08FB8F1080F0AD908235C4A01215A48DD
:103C30000093434605F09AFD6FF0150BEDE7082A57
:103C400004D95749544805F044FFF5E73279029307
:103C5000002A00F0948005AA4421FFF737FC834630
:103C60000028DAD1059A100600F18C8006F12403B1
:103C700003932246029B06F1240003F09DFE834637
:103C8000002840F0828034364FF0FF334FF0FF328F
:103C9000304605F023FF99F80C305B452EDC4FF0E1
:103CA000FF346B7938462A68D907BAF83A108DF88C
:103CB0001F404BBF069BBDF81A3062F31C0362F332
:103CC0008C0306AA4CBF0693ADF81A3004EBC4036C
:103CD000DB009BB219440293082389B205F0ECFE85
:103CE0008346A8B102462F492B4805F0F2FE304624
:103CF00005F0F6FE039803F02BFE8EE7D9F80020BE
:103D00005C4652F83B20002ACBD00BF1010BC4E7F4
:103D10006B799B0716D4B8F1000F13D0BAF83A208C
:103D200008F1030302993846083203F4FE73114484
:103D300005F1080289B205F0BFFE834610B10246C4
:103D40001949D1E7D9F80030D021129A384643F802
:103D50003420E200D9F800301344139A5A6001224B
:103D6000A240FFF7C9FB834628B1D9F800300021F3
:103D700043F83410BBE7304605F0B2FE4DE76FF074
:103D8000720B4AE76FF0710B47E76FF00A0B44E7DD
:103D900007D7000884D40008A8BF0008A7D40008EB
:103DA000D7D40008F9D4000823D500082DE9F3473B
:103DB000884619685B6891462C4A0546C3F30A0396
:103DC000066902EA0142D0F804A043F0004310362D
:103DD000DAF818700024134330464FF0FF32019395
:103DE0004FF0FF3305F07AFE7B7BA3420ADC204ACA
:103DF000022120486FF01B0505F069FE304605F0F2
:103E00006FFE2EE07A6852F8342072B10134ECE78C
:103E10003046254605F064FE7B6843F834807B68B5
:103E200003EBC403C3F804901BE004F001039DF806
:103E300007202846013363F3C50204238DF80720C9
:103E40000DEB0302BAF82E1001EB840189B205F0E4
:103E500033FE05460028DBD02A460749054805F011
:103E600038FE284602B0BDE8F08700BF0000FF071B
:103E700077D50008A8BF00084BD500082DE9F74FFB
:103E80001C7A0546D0F804B08846012C91469C4621
:103E9000DBF818600AD96FF08505224637493848A3
:103EA00005F017FE284603B0BDE8F08F002C3DD08A
:103EB00000241B680769CDF80340009A10378DF87D
:103EC000074063F31C02DCF804303846009223F00C
:103ED0006043019A43F0004302F0005213434FF055
:103EE000FF3201934FF0FF3305F0F8FDB37B9C42A6
:103EF0000ADB244A022122486FF01B0505F0E7FD8A
:103F0000384605F0EDFDCDE7B26852F8342092B1A5
:103F10000134ECE73846254605F0E2FDB36843F886
:103F20003480B3685344C3F8049023E003B0BDE881
:103F3000F04FFFF73BBF04F001039DF80320BBF8EF
:103F40003010284601334FEAC40A01EBC40163F381
:103F50004712082389B28DF803206A4605F0ACFDAC
:103F600005460028D6D02A460749054805F0B1FD88
:103F7000002D97DB737B1D4494E700BF97D50008A5
:103F8000A8BF0008BBD500084BD500082DE9F041BB
:103F90000C1ED0F8048005460769D8F8186006DAC8
:103FA000224625492548BDE8F04105F092BD10376D
:103FB0004FF0FF324FF0FF33384605F08FFD727B34
:103FC000944222DBA21AB37B934208DC1A491B48B5
:103FD00005F07FFD3846BDE8F04105F081BDB368CE
:103FE0000021284643F83210B36803EBC20359603E
:103FF000B8F8301001EBC201082289B205F063FD68
:1040000002460028E6D00E49E1E773680022284600
:1040100043F83420736803EBC4035A600422B8F8F1
:104020002E1001EB840189B205F04DFD02460028F7
:10403000D0D00449CBE700BFDBD50008A8BF0008FB
:10404000F6D5000822D600082DE9F0470769064694
:1040500044683B79D4F81880002B41D04FF47A7231
:10406000002305F03FFD054648B16FF004051E4AE8
:1040700001211E4805F02BFD2846BDE8F087206889
:1040800058B183685B689847044630B102461849C6
:104090001648254605F01DFDEEE70024304605F0E4
:1040A000B0FD2437A14607F8204C98F80C309C420C
:1040B000E2D2D8F80030E20053F834A0BAF1000F91
:1040C0000CD043F834906FF07201D8F800303046CD
:1040D00013445A68D047384603F03AFC0134E4E709
:1040E0006FF07705C8E700BF4ED60008A8BF0008EC
:1040F00068D60008F8B504460F4616464568FFF72F
:10410000CBFA38B1424A4348012105F0E0FC6FF098
:104110000400F8BD4FF47A720023204605F0E2FC5B
:1041200008B13D4AEFE72046F61B05F06AFDEA8D2F
:10413000EB8B4FF6FC77324484211B0420463A4037
:1041400003F47F031A43FFF7D7F90028E1D12A8E41
:1041500088212B8C204632441B043A4003F4FE0392
:104160001A43FFF7C9F90028D3D16A8EA0216B8CBE
:10417000204632441B043A4003F4FE031A43FFF77F
:10418000BBF90028C5D1AA8EB021AB8C20463244A1
:104190001B043A4003F4FE031A43FFF7ADF900286D
:1041A000B7D1EA8EAC21204632443A40FFF7A4F959
:1041B0000028AED12A8FF0212B8D204632441B04DB
:1041C0003A4003F47C131A43FFF796F90028A0D174
:1041D0006A8FC0216B8D204632441B063A4003F0A3
:1041E0007C531A4342F08042FFF786F9002890D1B1
:1041F0000722C8212046FFF77FF9002889D12046F1
:1042000040F27772BC21BDE8F840FFF775B900BFF6
:1042100093D60008A8BF00084ED60008F0B50023CA
:1042200085B0456804460669AF69ADF80C30CDE944
:10423000013306F1100006F076FE06F1340006F0B8
:1042400072FE3A7B114606F1240006F073FE2868E0
:1042500050B106F042FE38B9474A0121474805F0FF
:1042600036FC6FF012000AE02046FFF715FA40B165
:10427000434A4248012105F02AFC6FF0040005B0D2
:10428000F0BD4FF47A720023204605F02BFC08B1F4
:104290003C4AEEE7204605F0B4FC6A461821204669
:1042A000FFF714F90028EAD1009A1821204622F4D9
:1042B00069720092FFF720F90028E0D16A461021C8
:1042C0002046FFF703F90028D9D1009A1021204693
:1042D00022F010020092FFF70FF90028CFD16A46B2
:1042E00080212046FFF7F2F80028C8D1009A8021EB
:1042F000204642F02B020092FFF7FEF80028BED1C4
:10430000EA682B8A01A92046FEF7FCFF163001D18E
:104310001D4AAEE701A9204605F091FB024620B1F7
:104320001A49164805F0D5FB9BE7194A5421204647
:104330000092FFF7E1F80028A1D1992258212046E8
:104340000092FFF7D9F8002899D103225C2120467A
:104350000092FFF7D1F8002891D14FF0FF32E02111
:1043600020460092FFF7C8F8002888D10146EA6B82
:10437000204605F0A8FB82E7ADD60008A8BF0008DC
:1043800093D600084ED60008C7D60008E9D6000824
:1043900099908203034607480A46816810B4CC68A6
:1043A0001CB11946234610BC18476FF0570010BCCB
:1043B000704700BFF0B4000837B543680C461D6C69
:1043C000194806F08AFD40B918480121184A05F03D
:1043D000BAF96FF0120003B030BDD5E9053001A97C
:1043E000012B0CD90830FFF7D5FF00280DDA114A50
:1043F0000E48012105F0A7F96FF00400EBE7FFF785
:10440000C9FF002801DA0C4AF2E70C4B019A5B68FD
:1044100003F47023B3F5803F02D200202260DAE774
:10442000DB0BB2FBF3F2F8E7F0B40008B0BF000812
:1044300056CC000820D700084CD7000800A8004040
:104440002DE9F043436885B0054600211F6C03AA9F
:10445000386906F0F0F8041E07DB039B0022197987
:10446000186801F081F9044648B13A4A234601210F
:10447000394805F071F9204605B0BDE8F0836B6856
:104480001E6C4FF0FF330393DFF8D080404606F0F8
:1044900024FD38B9324A01212F4805F054F96FF054
:1044A0001204E8E77369B169012BD8F8089025D99F
:1044B000D9F81830083153B1224640469847041EB7
:1044C00008DA284A0121244805F03DF9D3E76FF0C6
:1044D0005704F6E7B06903A90830FFF75BFF04460D
:1044E00008B1214AEEE7039B204A934206D90121F5
:1044F000009219481E4A05F039F9D0E7D9F8003082
:10450000B1692BB115489847044620B1194AD9E73B
:104510006FF05704FAE7337F53B1284605F071FB7B
:10452000337F154ADB0303F4702343F040035360E9
:104530002846D7E90112FFF7DDFD044600289AD18D
:104540002846FFF76BFE0446002894D1FB68984785
:1045500091E700BF78D70008B0BF0008F0B40008AA
:1045600056CC000896D70008C0D7000840597307FA
:10457000DBD7000808D8000800A80040064B1B69DC
:1045800003F03803102B05D0182B044818BF002067
:10459000400870470248FBE7004402588055C82095
:1045A00000366E01384B10B518680B88C3F30B0347
:1045B000132B37D813B96FF0850032E0013B122B73
:1045C000F9D801A454F823F0514600081546000814
:1045D00057460008754600085D460008B7450008C4
:1045E000B7450008614600086546000865460008B2
:1045F00069460008694600086D46000871460008D3
:104600005D46000871460008B745000849460008A5
:1046100049460008002010600B68B3F5805F2BD27C
:10462000002010BDD42B0FD003F62873C3F30B0367
:104630001C2BC0D8012404FA03F3144C234205D1E7
:1046400040F211142342B6D04008E4E78008E2E7C4
:10465000FFF794FFDFE74FF4FA40DCE70C48DAE7B6
:104660000C48D8E70C48D6E70C48D4E70C48D2E70A
:104670000C48D0E70C48CEE7C3F313330133B0FB4B
:10468000F3F01060CCE700BFD40500240010111136
:10469000006CDC028055C820C02A6410000E270779
:1046A000001C4E0E00D8B80500366E01A74B73B53E
:1046B000D3F8E02042F00072C3F8E020D3F8E02005
:1046C00002F000720192019A1A6822F480221A60A4
:1046D0001A6842F480321A601A689403FCD55A6F43
:1046E00042F001025A67994B5A6F9007FCD51A683D
:1046F00042F480521A601A689104FCD5944B9A696E
:1047000022F440429A619A699204FCD58F4B1A694F
:1047100002F03802182A16D11A68560706D41A6809
:1047200042F001021A601A685507FCD5874B1A69D6
:1047300022F007021A611A6912F0380FFBD19A6948
:1047400022F00F029A61814B1A6822F080721A607F
:104750001A6822F080621A601A6822F080521A6089
:104760009A6A22F0030242F002029A629A6A22F4E2
:104770007C7242F0C0029A62DA6A22F00C02DA62BB
:10478000DA6A42F00202DA621A6B22F4FF7222F055
:10479000010242F489721A63DA6A22F00102DA62D3
:1047A0001A6B22F47E421A63DA6A42F48032DA62C9
:1047B0001A6B22F4FE0242F480321A63DA6A42F47F
:1047C0000032DA621A6B22F0FE4242F080721A6303
:1047D000DA6A42F48022DA621A6842F080721A6061
:1047E0001A689401FCD59A6A22F47C3242F4005291
:1047F0009A62DA6A42F0C002DA62DA6A22F02002D1
:10480000DA629A6B22F4FF7222F0010242F0270270
:104810009A63DA6A22F01002DA629A6B22F47E421C
:1048200042F4C0629A63DA6A42F40022DA629A6B56
:1048300022F4FE0242F440329A63DA6A42F48012B1
:10484000DA629A6B22F0FE4242F080729A63DA6A70
:1048500042F40012DA621A6842F080621A603B4B3E
:104860001A681001FCD59A6A384C22F07C7242F426
:1048700000129A62DA6A42F44062DA62DA6A22F478
:104880000072DA621A6C22F4FF7222F0010242F026
:104890000F021A64DA6A22F48072DA621A6C22F465
:1048A0007E4242F400721A64DA6A42F48002DA62EA
:1048B0001A6C22F4FE0242F440321A64DA6A42F4BC
:1048C0000002DA621A6C22F0FE4242F080721A6430
:1048D000DA6A42F08072DA621A6842F080521A6034
:1048E00023689900FCD51B4EFFF748FE0546B042F1
:1048F00002D8194802F05EFCA369144A23F47063DD
:10490000A361A36923F00F0343F00803A361E369E4
:1049100023F0700343F04003E361E36923F4E063B1
:1049200043F48063E361A36923F0700343F0400321
:10493000A361236A23F0700343F0400323622369D9
:1049400023F0070343F00303236107E00044025808
:1049500000480258BF2A6410C02A6410136903F08B
:104960003803182BFAD1B54202D90B4802F022FCC9
:104970000A4B9A6922F440429A619A699204FCD5E2
:10498000074A0020136923F400431361054B064ACC
:104990001A6002B070BD00BFC02A641000480258FF
:1049A00000440258D40500248055C820132808D894
:1049B000054BC34013F0010F14BF00206FF08500BA
:1049C00070476FF0850070473AFF0D002DE9F04108
:1049D00043681446481E5A69D3F81080824212D99F
:1049E000DD69470105EB401600F03AFB074B1B5C05
:1049F000002043445B689BB26360EB596370B37AF9
:104A00002370BDE8F0816FF01500FAE769DA00085D
:104A10002DE9F04143684C1E07465A691E69A242BF
:104A20002AD9DD6905EB441595F80980B8F1000F26
:104A300004D00023AB720020BDE8F081214630464F
:104A400000F006FC0028F6D0204600F009FB0C4BD5
:104A500021461A5C3046935923F01003935100F01D
:104A60001FFC2146786805F075FA2146304605F0AE
:104A70005DFA85F80A80DEE76FF01500DCE700BF1D
:104A800069DA00082DE9F84F9946436892464C1EB2
:104A90005A691D69A24212D9D3F81CB02146284692
:104AA000670105F043FA06460BEB441800285DD178
:104AB0005BF80730012B07D033F0020333D06FF0DF
:104AC00015063046BDE8F88FDFF8A8B0204600F0A4
:104AD000C7FA1BF8003020462B44C3F80CA000F0A6
:104AE000BFFA1BF800302B44C3F8089098F8083040
:104AF0002046DFF880904BB300F0B2FA19F80010AE
:104B0000D8F80C3029440A984A68B0FBF3F3120C29
:104B1000120413434B6001232146284688F80A30CB
:104B200000F088FBCDE7DFF84CB0204600F098FAA3
:104B30001BF8003020462B44C3F808A000F090FA80
:104B40001BF800302B44C3F80C90CFE700F088FA34
:104B500019F80020D8F810102A440A985368B0FBBE
:104B6000F1F71B0C1B041F435760D4E76FF00F06CF
:104B7000A7E700BF69DA000870B5054646681D4C16
:104B8000204606F0AAF940B96FF012041A4A012132
:104B90001A4804F0D8FD204670BDA3681B683BB9D5
:104BA000174A012115486FF0040404F0CCFDF2E728
:104BB00020463146984704460028F1D1B36828467C
:104BC00098472346224671698B4206D32B691A60A7
:104BD0002B695A602B699A60DDE7F16901EB43119B
:104BE0008A72F169307E01EB431118440133486049
:104BF000E9E700BFF0B4000856CC0008C0BF0008C9
:104C00005FD800082DE9F041064640680D46C469AA
:104C1000076904EB4114637A2BB9A37A1BB9BDE889
:104C2000F04105F097B929463846D4F8048000F0E1
:104C3000C1FA70B1637A1BB92946384600F016FAFA
:104C4000A5690123424661693046AC46BDE8F041A2
:104C500060472946384600F097FA58B1237F03B9D8
:104C6000A372637A1BB92946384600F005FAA56994
:104C70000023E7E73846294600F0B2FA074640B17C
:104C80000C4A01210C4804F05EFDA5696FF0040395
:104C9000D8E70A4A0121084804F055FDA772736855
:104CA0002946186900F03CFA2946706805F052F967
:104CB000EBE700BF70D80008C0BF000889D8000823
:104CC0002DE9F04F95B00D46144600AFD0F804B072
:104CD000013D786007F10C00DBF8106006F0B1F8D8
:104CE000DBF81430AB4207D82A467F497F4805F0ED
:104CF00018F96FF015080FE0DBF81CA06B010AEB48
:104D000045193B6099F80A205AB12A4678496FF054
:104D10000F08764805F005F940465437BD46BDE812
:104D2000F08F2946304605F001F9804610B12A4639
:104D30007049ECE77B682946586805F00BF96288F2
:104D400002F47E62B2F57E6F0DD1012289F80A204D
:104D500089F80920A269C9F81820626989F81C80BD
:104D6000C9F81420D8E721694A69B2F5803F01D318
:104D70006149BBE7627852071AD19BF80C00B8B9B9
:104D80007B686C4688B01B686A465C49C2E90513BB
:104D90004FF4007393835A4B42F8103F4FF4E251A3
:104DA00003465248FDF700F8A5466FF08508B3E7C3
:104DB000A088E288824205D0524A01214B4804F083
:104DC000C2FC96E7042A04D0501E012801D94E499E
:104DD0008CE70A7FC2F38011B1EBD21F01D04B4A9E
:104DE000EBE701226B0189F80A20A269C9F81820B3
:104DF000627802F007024AF803206269C9F81420B9
:104E0000A288C9F80C20E288C9F810202269127F14
:104E1000C2F3801289F81C202269126822B93C4A28
:104E20000221324804F08FFC2269526822B9394AC3
:104E300002212E4804F087FC6B0121695AF8030017
:104E40000A6801280BBF3A61FA604A684A680CBFD9
:104E5000FA603A612268C2F3C332032A13D8DFE84A
:104E600002F01402160F4FF480327A63627802F077
:104E70000702012A0ED0022A1BD012B3264935E7B9
:104E80004FF44032F1E7254930E70022EDE74FF4D7
:104E90000032EAE740227A610A7FC2F38101C2F35D
:104EA0000112012981D0022910D061B94FF480612B
:104EB0000DE000227A610A7FC2F30111C2F3810280
:104EC000EFE78022F6E7032215490FE70021012AC8
:104ED00039623FF46AAF022A26D0002A00F0A4808B
:104EE0000322104902E700BF99D80008C0BF00089C
:104EF000BDD80008D4D80008F5D800080CD900089F
:104F00000300000130D9000852D9000876D9000802
:104F1000ACD90008CBD90008FBD90008E8D90008B3
:104F20000FDA00082ADA00080022FA616B0199F80A
:104F30001C2020461202BA615AF80320931E5A42DE
:104F40005A4189F80820A188002991FAA1F2414923
:104F5000B2FA82F208BF4FF0FF3251F82220E18806
:104F60007A62002991FAA1F23B49B2FA82F208BFB3
:104F70004FF0FF3251F82220BA6299F8081000F081
:104F80009FF93864204699F8081000F0BBF92269AF
:104F90007864507F00F00F0000F0D6F9F86307F155
:104FA0000C0005F071F922698000B86399F80810C7
:104FB00000293CD0A18852692846B2FBF1F2FA627E
:104FC0002278264C3A6300F04BF807F10C020146B8
:104FD000304602F09DF8284600F042F8215C8A59DC
:104FE00042F010028A5199F81C303BB1284600F07B
:104FF00037F8225C935943F008039351BB6B284662
:10500000042B16D100F02CF8235C284633445A694F
:1050100042F004025A6100F023F8235C33445A69D9
:1050200042F080025A6177E64FF400727DE7E18832
:10503000C1E700F015F8235C284633445A6922F092
:1050400004025A6100F00CF8235C33445A6922F0E0
:105050008002E7E778C3000884C3000869DA000823
:10506000014B53F820007047D0C40008014B53F89F
:1050700021301847B0C40008014B53F821301847BD
:1050800090C4000808B5044B53F821309847003805
:1050900018BF012008BD00BF70C4000808B5044B4C
:1050A00053F821309847003818BF012008BD00BFD1
:1050B00050C40008014B53F82130184730C4000891
:1050C000014B53F82130184710C40008014B53F826
:1050D00021301847F0C3000808B5044B53F82130BD
:1050E0009847003818BF012008BD00BFD0C3000892
:1050F00008B5044B53F821309847003818BF0120F9
:1051000008BD00BFB0C3000808B5044B53F82130F8
:105110009847003818BF012008BD00BF90C30008A1
:105120002DE9F04704460D4600AFFFF7B7FF2946CB
:1051300082462046FFF7A6FF294681462046FFF714
:10514000CBFF294680462046FFF7D2FF2946064678
:105150002046FFF7D9FF8CB06A4609490723C2E908
:10516000051AC2E90798C2E9096042F8103F002316
:105170004FF463510348FCF717FEBD46BDE8F087C6
:1051800071DA0008C8BF0008084A10B552F821209B
:10519000074CA25C835813F0100304D0FFF77EFF86
:1051A00000F0010010BD1846FAE700BFD0C40008A7
:1051B0004FDB0008084A10B552F82120074CA25CCA
:1051C000835813F0080304D0FFF75CFF00F00100E0
:1051D00010BD1846FAE700BFD0C400084FDB000836
:1051E000104B114A53F82130D35C034470B55B690E
:1051F00005460E461B0602D40024204670BDFFF76C
:1052000083FF04460028F7D0084A0121084804F02B
:105210009AFA31462846FFF783FF3146284605F0C3
:1052200024F8EAE7D0C400084FDB000899DA000848
:10523000C8BF0008044B054A53F82130D25C83589C
:1052400043F0010383507047D0C400084FDB0008CF
:10525000044B054A53F82130D35CC05800F00100DC
:10526000704700BFD0C400084FDB000838B50A4BB8
:1052700004460A4A53F82130D25C835823F00103D4
:1052800083502046FFF7E4FF05460028F9D1204669
:10529000FFF7F2FE284638BDD0C400084FDB0008F7
:1052A000054B064A53F82130D35C1844436923F078
:1052B00080034361704700BFD0C400084FDB000883
:1052C00008B571B14389082B12D00CD8012B06D038
:1052D000042B10D0094A0121094804F034FA0020B7
:1052E00008BD0389EFE7102BF4D14FF0C070F7E74A
:1052F0004FF08070F4E74FF40000F1E7A5DA000802
:10530000C8BF000808B571B10389082B12D00CD8AA
:10531000012B06D0042B10D0094A0121094804F0C2
:1053200012FA002008BD4389EFE7102BF4D14FF4A7
:10533000C000F7E74FF48000F4E74FF40010F1E706
:10534000DBDA0008C8BF000808B5032807D8DFE883
:1053500000F00B020D04012008BD0320FCE7044A05
:105360000221044804F0EFF90020F5E70220F3E7FA
:1053700015DB0008C8BF000838B50C4641680F4B64
:105380000F488D68854218BF0023087BA04207D8CC
:1053900022460C490C4804F09EFF6FF0150038BD02
:1053A00008691B6900EBC40150F83400097998477B
:1053B0000028F4D022460549ECE700BF84C5000868
:1053C0000008024057DB0008D0BF000871DB00086E
:1053D00073B50C464168104D8E681048AE4218BF38
:1053E00000200D7BA54208D822460D490D4804F047
:1053F00072FF6FF0150002B070BD0D69069E05EBDF
:10540000C40109790096C66855F83400B0470028F1
:10541000F1D022460449E9E70008024084C50008AB
:1054200057DB0008D0BF00089DDB000810B54268BC
:105430000C460F4B0F499068884218BF0023117B20
:10544000A14207D822460C490C4804F044FF6FF0F3
:10545000150010BD12699B6802EBC40152F83400BC
:10546000097998470028F4D022460549ECE700BFA7
:1054700084C500080008024057DB0008D0BF0008C0
:10548000C2DB000810B542680C460F4B0F4990680C
:10549000884218BF0023117BA14207D822460C493D
:1054A0000C4804F018FF6FF0150010BD12695B681E
:1054B00002EBC40152F83400097998470028F4D06F
:1054C00022460549ECE700BF84C5000800080240F9
:1054D00057DB0008D0BF0008E5DB000870B5456861
:1054E0000C46194BA86819491678884218BF002342
:1054F000A97B687B0144B14207DA3246144915485A
:1055000004F0E9FE6FF0150070BD297B8C4202D3D8
:1055100022461149F3E728691B6800EBC40150F8E3
:1055200034000979984728B10C4A0121094804F050
:105530000AF9E7E7AB6853F8242022F0FF02324370
:1055400043F82420E0E700BF84C5000800080240BB
:1055500009DC0008D0BF000857DB000825DC000884
:1055600038B54568164C204605F0B7FC38B9154AE1
:105570000121154804F0E7F86FF0120409E0A36870
:105580001B6843B96FF00404104A01210E4804F06F
:10559000DAF8204638BD20462946984704460028B8
:1055A000F0D1AA680A4B9A42F3D10A4805F095FC5B
:1055B0000028E1D0084805F090FC0028E9D1DBE79D
:1055C000F0B4000856CC0008D0BF00085FD800082F
:1055D0000008024070B5000850B500082DE9F843F6
:1055E000D0F804801746D0F810900D46D8F808007F
:1055F0001E4604F0CFF9B7F5001F044616D1D8F8BF
:1056000008402846FDF7F4FD84420CD1294604F0F9
:10561000C1F9044604F0C3F92046FDF7D7FD002187
:10562000204604F0C5F90020BDE8F883B7F5800FE7
:1056300020D0B6F1806F19D0B6F1C06F18D0B6F196
:10564000007F1AD102264A460F492046FDF79EFDEB
:10565000B0B9D8F80810284604F0D3F920463146EE
:1056600004F0A6F92046FDF779FDDCE70126EAE71C
:105670000326E8E76FF08500D6E76FF01500D3E763
:105680006FF00F00D0E700BFEDA4000838B5036944
:10569000044658600A4D284605F01FFC60B1AB680F
:1056A00061681B680C3123B12846984700EAE07016
:1056B00038BD6FF05700F9E76FF01200F8E700BF50
:1056C000F0B40008B0B5446800AF0546206805F0A6
:1056D00004FC60B1E06830B9E17F0023DAB29142A6
:1056E0001ED800201AE005F0F8FB0028F4D123684A
:1056F0006C4688B01B686A461749C2E905134FF427
:1057000000739383154B42F8103F154800234FF464
:10571000E251FCF749FB6FF01200A546BD46B0BD53
:10572000226AD25C0133032AD8D96C4688B02B6830
:105730006A460C49C2E905134FF400739383074B83
:1057400042F8103F064800234FF4E251FCF72CFBCF
:105750006FF01500A546E1E7FDDC0008030000013D
:1057600038C0000815DD00082DE9F047044600EBBD
:10577000C10600251C4FB44201D1002014E020686E
:10578000C30600F01F0911D4656845F02005C0F379
:10579000481AC0F34420192823D857F82080B8F1BC
:1057A000000F0DD16FF01200BDE8F087B9F1100FB6
:1057B00004D0B9F1110FEAD16568E8E73025E6E7D2
:1057C000404605F08AFB0028ECD04B462A460AF0FA
:1057D0000F01404604F0A0FE002804F10804CADAD4
:1057E000E2E76FF01500DFE7A0C6000801490248B4
:1057F00004F074BF86DD000888BF000803292DE986
:10580000FF410746164607D90C2922D06FF08504C0
:10581000204604B0BDE8F081026912BFC9B202207F
:105820000021578A18BF08460C322E4C814206F1DF
:10583000080601DD0024EBE732F9113001317B432A
:1058400093FBF4F504FB153346F8085C46F8043C7A
:10585000ECE74FF0020800220DF10E03A221CDF873
:105860000080ADF80E2004F032FF044668B9BDF8A0
:105870000E20D300802A03F4FF650DD11A496FF082
:105880003C041A4804F02AFFC2E7194A03460121E2
:10589000164803F061FFBBE702460DF10E03A3219A
:1058A0003846CDF8008004F012FF044698B9BDF8E0
:1058B0000E30C3F342132B43B3F5806F0EDA7D2114
:1058C0000C48084A13FB01000023C117FBF74AF8F4
:1058D000C6E900029CE7084A0346D8E7A3F500633F
:1058E0001BB2ECE740420F00CADD000888BF000889
:1058F0009EDD0008C0F35E01EFDD000870B50569AC
:1059000006460C4695F830301F2B18D1042210495A
:10591000A0B205F006F8002810DBC2B241213046E3
:1059200004F05EFF002809DB0A4B84FB0332002AE7
:1059300002DA4FF6FF729B181B0C6B8270BD1E2B98
:1059400002D104220449E3E76FF01200F6E700BF3A
:105950005CCA000874462B014CCA000838B5002206
:105960005B21054604F03CFF041E05DA0B490C4898
:1059700004F0B4FE204638BD00225C21284604F025
:105980002FFF041EF2DB4FF4C053064A5E21284667
:1059900004F000FF041EEDDA0349E8E71BDE00080F
:1059A00088BF000860E000082EDE00082DE9F04303
:1059B00087B000260546D0F8048002AFD0F81090DA
:1059C000D8F818304046BE711B689847041E18DA94
:1059D0002B686D4688B002AA7A49C2E905134FF4D4
:1059E00000739383784B42F8103F4FF4E2513346F3
:1059F0007648FCF7D9F9AD4620461437BD46BDE8D8
:105A0000F083B6227E21284604F0EAFE041E04DA62
:105A10006F496E4804F062FEEEE7012004F062FE7A
:105A20006B689B695B684BB128469847041E05DA92
:105A30002B686D4688B002AA6649CEE7BA1D0021E0
:105A4000284604F0B0FE041E01DA6349E1E7BB79A1
:105A5000A3F11E02012A07D9604A01215B486FF0B9
:105A6000120403F079FEC7E700227C21284689F85A
:105A7000303004F0B5FE041E01DA5949C9E70520AB
:105A800004F030FE04227D21284604F0A9FE041E05
:105A900001DA5449BDE7052004F024FE98F82A30C5
:105AA000002B70D000227C2128466E6804F098FEFE
:105AB000041E01DA4C49ACE7052004F013FE002275
:105AC0007D21284604F08CFE041E01DA4749A0E738
:105AD000052004F007FE00225921284604F080FE2C
:105AE000041E01DA424994E7B3692846DB68984707
:105AF00030B1404935486FF0040404F0EFFD7BE716
:105B0000052004F0EFFD01225921284604F068FE2B
:105B1000041E01DA37497CE7962004F0E3FDFA1D04
:105B20002A21284604F03FFE041EF3DBFB79012BFB
:105B300001D03149DEE7062307F108025E2128463D
:105B400004F010FE041E01DA2C4962E796F82A30B0
:105B500007F108025E2128463B7300237B7306236E
:105B600004F018FE041ED5DB642004F0BBFD042203
:105B70007D21284604F034FE041E01DA204948E75E
:105B8000052004F0AFFD98F829102846FFF7B6FE6F
:105B9000041E01DA1B493CE798F828300022402116
:105BA000284600930F2304F029FE041E01DA16494B
:105BB0002FE7284600F018F9041EBFF61DAF134961
:105BC00027E700BF5CDE00080300000188BF000873
:105BD00073DE000887DE0008A3DE0008BBDE0008D5
:105BE000DFDE0008FDDE00081BDF000847DF0008DD
:105BF00060DF00082EDE00087FDF00089BDF000862
:105C0000C8DF0008DFDF00080BE000082EE0000816
:105C10000BB2043B032BF0B51DD8072904690F4DC7
:105C200018BF0439E78807BF02200021C9B208461F
:105C3000814202F1080201DD0020F0BD34F911308B
:105C400001317B4393FBF5F605FB163342F8086CF4
:105C500042F8043CECE76FF08500EEE740420F00AD
:105C6000F8B50D460769064605220C49284604F09A
:105C700058FE041E0FDBE2B20F21304604F043FE53
:105C8000041E08DB06484FF434020023A5FB000184
:105C9000FAF718FEF8802046F8BD00BF6CCA00086D
:105CA000B0DF5F002DE9F04182B04FF000080546FB
:105CB000466800AFB369304687F807801B6898478D
:105CC000041E18DA2B686D4688B06A463149C2E96D
:105CD00005134FF4007393832F4B42F8103F4FF49A
:105CE000E25143462D48FCF75FF8AD4620460837A1
:105CF000BD46BDE8F081B6221421284604F003FE1B
:105D0000041E05DA264A0121244803F01CFDEDE7B4
:105D100000214FF4967005F0EAF9FA1D4146284635
:105D200004F0E5FD041E01DA1E4AECE7FB790F2BB7
